:020000040800F2
:1000000000C0002009490008814800088348000812
:10001000854800088748000889480008000000005B
:100020000000000000000000000000008B480008F5
:100030008D480008000000008F4800089148000823
:100040005149000851490008514900085149000828
:100050005149000851490008514900085149000818
:1000600051490008514900085149000889330008E6
:1000700051490008514900085149000851490008F8
:100080009D480008AD480008514900085149000842
:1000900051490008514900085149000851490008D8
:1000A00051490008514900085149000851490008C8
:1000B00051490008514900085149000851490008B8
:1000C00051490008514900085149000851490008A8
:1000D0005149000851490008514900085149000898
:1000E0005149000851490008514900085149000888
:1000F0005149000851490008514900085149000878
:100100005149000851490008514900085149000867
:100110005149000851490008514900085149000857
:100120005149000851490008514900085149000847
:1001300000000000000000000000000000000000BF
:1001400000000000000000000000000000000000AF
:10015000000000000000000000000000000000009F
:10016000000000000000000000000000000000008F
:10017000000000000000000000000000000000007F
:10018000000000000000000000000000000000006F
:10019000000000000000000000000000000000005F
:1001A000000000000000000000000000000000004F
:1001B000000000000000000000000000000000003F
:1001C000000000000000000000000000000000002F
:1001D000000000000000000000000000000000001F
:0401E0005FF8E0F1F3
:1001E80010B5054C237833B9044B13B10448AFF369
:1001F80000800123237010BDD009002000000000FA
:10020800C47D000808B5034B1BB103490348AFF38D
:10021800008008BD00000000D4090020C47D00084B
:10022800034613F8012B002AFBD1181A013870472E
:1002380081F0004102E000BF83F0004330B54FEA8F
:1002480041044FEA430594EA050F08BF90EA020FFC
:100258001FBF54EA000C55EA020C7FEA645C7FEA8F
:10026800655C00F0E2804FEA5454D4EB5555B8BFB2
:100278006D420CDD2C4480EA020281EA030382EA23
:10028800000083EA010180EA020281EA0303362DB5
:1002980088BF30BD11F0004F4FEA01314FF4801C88
:1002A8004CEA113102D0404261EB410113F0004F9A
:1002B8004FEA03334CEA133302D0524263EB430351
:1002C80094EA050F00F0A780A4F10104D5F1200EEF
:1002D8000DDB02FA0EFC22FA05F2801841F100014A
:1002E80003FA0EF2801843FA05F359410EE0A5F11E
:1002F80020050EF1200E012A03FA0EFC28BF4CF04F
:10030800020C43FA05F3C01851EBE37101F0004504
:1003180007D54FF0000EDCF1000C7EEB00006EEB11
:100328000101B1F5801F1BD3B1F5001F0CD349089B
:100338005FEA30004FEA3C0C04F101044FEA4452F2
:1003480012F5800F80F09A80BCF1004F08BF5FEA79
:10035800500C50F1000041EB045141EA050130BD59
:100368005FEA4C0C404141EB010111F4801FA4F1FC
:100378000104E9D191F0000F04BF01460020B1FA51
:1003880081F308BF2033A3F10B03B3F120020CDA89
:100398000C3208DD02F1140CC2F10C0201FA0CF067
:1003A80021FA02F10CE002F11402D8BFC2F1200CCC
:1003B80001FA02F120FA0CFCDCBF41EA0C01904082
:1003C800E41AA2BF01EB0451294330BD6FEA0404CB
:1003D8001F3C1CDA0C340EDC04F11404C4F12002B6
:1003E80020FA04F001FA02F340EA030021FA04F3C8
:1003F80045EA030130BDC4F10C04C4F1200220FA1F
:1004080002F001FA04F340EA0300294630BD21FA5C
:1004180004F0294630BD94F0000F83F4801306BF22
:1004280081F480110134013D4EE77FEA645C18BF16
:100438007FEA655C29D094EA050F08BF90EA020FAD
:1004480005D054EA000C04BF1946104630BD91EAA5
:10045800030F1EBF0021002030BD5FEA545C05D1A8
:100468004000494128BF41F0004130BD14F58004E7
:100478003CBF01F5801130BD01F0004545F0FE415B
:1004880041F470014FF0000030BD7FEA645C1ABF90
:10049800194610467FEA655C1CBF0B46024650EAC7
:1004A800013406BF52EA033591EA030F41F40021F3
:1004B80030BD00BF90F0000F04BF0021704730B579
:1004C8004FF4806404F132044FF000054FF000014E
:1004D80050E700BF90F0000F04BF0021704730B50F
:1004E8004FF4806404F1320410F0004548BF4042E4
:1004F8004FF000013EE700BF42004FEAE2014FEA39
:1005080031014FEA02701FBF12F07F4393F07F4F13
:1005180081F06051704732F07F4208BF704793F016
:100528007F4F04BF41F40021704730B54FF4607429
:1005380001F0004521F000411CE700BF50EA01022C
:1005480008BF704730B54FF000050AE050EA0102D5
:1005580008BF704730B511F0004502D5404261EB45
:1005680041014FF4806404F132045FEA915C3FF486
:10057800D8AE4FF003025FEADC0C18BF03325FEA23
:10058800DC0C18BF033202EBDC02C2F1200300FAD4
:1005980003FC20FA02F001FA03FE40EA0E0021FAF9
:1005A80002F11444BDE600BF70B54FF0FF0C4CF4E7
:1005B800E06C1CEA11541DBF1CEA135594EA0C0F99
:1005C80095EA0C0F00F0DEF82C4481EA030621EAD4
:1005D8004C5123EA4C5350EA013518BF52EA03350F
:1005E80041F4801143F4801338D0A0FB02CE4FF0C1
:1005F8000005E1FB02E506F00042E0FB03E54FF0F1
:100608000006E1FB03569CF0000F18BF4EF0010EE8
:10061800A4F1FF04B6F5007F64F5407404D25FEAE4
:100628004E0E6D4146EB060642EAC62141EA555197
:100638004FEAC52040EA5E504FEACE2EB4F1FD0CD9
:1006480088BFBCF5E06F1ED8BEF1004F08BF5FEA57
:10065800500E50F1000041EB045170BD06F0004609
:1006680046EA010140EA020081EA0301B4EB5C04B6
:10067800C2BFD4EB0C0541EA045170BD41F48011AE
:100688004FF0000E013C00F3AB8014F1360FDEBFD3
:10069800002001F0004170BDC4F10004203C35DAAF
:1006A8000C341BDC04F11404C4F1200500FA05F332
:1006B80020FA04F001FA05F240EA020001F00042D3
:1006C80021F0004110EBD37021FA04F642EB060149
:1006D8005EEA430E08BF20EAD37070BDC4F10C0473
:1006E800C4F1200500FA04F320FA05F001FA04F237
:1006F80040EA020001F0004110EBD37041F1000123
:100708005EEA430E08BF20EAD37070BDC4F120052D
:1007180000FA05F24EEA020E20FA04F301FA05F295
:1007280043EA020321FA04F001F0004121FA04F23D
:1007380020EA020000EBD3705EEA430E08BF20EA0D
:10074800D37070BD94F0000F0FD101F00046400047
:1007580041EB010111F4801F08BF013CF7D041EAC9
:10076800060195F0000F18BF704703F000465200CD
:1007780043EB030313F4801F08BF013DF7D043EA9E
:100788000603704794EA0C0F0CEA135518BF95EA54
:100798000C0F0CD050EA410618BF52EA4306D1D1DB
:1007A80081EA030101F000414FF0000070BD50EAFA
:1007B800410606BF1046194652EA430619D094EA84
:1007C8000C0F02D150EA013613D195EA0C0F05D16E
:1007D80052EA03361CBF104619460AD181EA0301C2
:1007E80001F0004141F0FE4141F470014FF000007A
:1007F80070BD41F0FE4141F4780170BD70B54FF015
:10080800FF0C4CF4E06C1CEA11541DBF1CEA135594
:1008180094EA0C0F95EA0C0F00F0A7F8A4EB050476
:1008280081EA030E52EA03354FEA013100F088806D
:100838004FEA03334FF0805545EA131343EA126336
:100848004FEA022245EA111545EA10654FEA0026EB
:100858000EF000419D4208BF964244F1FD0404F5A4
:10086800407402D25B084FEA3202B61A65EB030500
:100878005B084FEA32024FF480104FF4002CB6EBBD
:10088800020E75EB030E22BFB61A754640EA0C003D
:100898005B084FEA3202B6EB020E75EB030E22BF7D
:1008A800B61A754640EA5C005B084FEA3202B6EBBE
:1008B800020E75EB030E22BFB61A754640EA9C007D
:1008C8005B084FEA3202B6EB020E75EB030E22BF4D
:1008D800B61A754640EADC0055EA060E18D04FEA0B
:1008E800051545EA16754FEA06164FEAC30343EAAB
:1008F80052734FEAC2025FEA1C1CC0D111F4801F78
:100908000BD141EA00014FF000004FF0004CB6E770
:1009180011F4801F04BF01430020B4F1FD0C88BF0F
:10092800BCF5E06F3FF6AFAEB5EB030C04BFB6EB1A
:10093800020C5FEA500C50F1000041EB045170BD0D
:100948000EF0004E4EEA113114EB5C04C2BFD4EB3A
:100958000C0541EA045170BD41F480114FF0000EBE
:10096800013C90E645EA060E8DE60CEA135594EA3A
:100978000C0F08BF95EA0C0F3FF43BAF94EA0C0F3D
:100988000AD150EA01347FF434AF95EA0C0F7FF4B2
:1009980025AF104619462CE795EA0C0F06D152EA06
:1009A80003353FF4FDAE1046194622E750EA4106EA
:1009B80018BF52EA43067FF4C5AE50EA41047FF4FB
:1009C8000DAF52EA43057FF4EBAE12E74FF0FF3C60
:1009D80006E000BF4FF0010C02E000BF4FF0010C31
:1009E8004DF804CD4FEA410C7FEA6C5C4FEA430CAA
:1009F80018BF7FEA6C5C1BD001B050EA410C0CBFF9
:100A080052EA430C91EA030F02BF90EA020F00205A
:100A1800704710F1000F91EA030F58BF994208BFC1
:100A280090422CBFD8176FEAE37040F0010070477E
:100A38004FEA410C7FEA6C5C02D150EA013C07D1D5
:100A48004FEA430C7FEA6C5CD6D152EA033CD3D020
:100A58005DF8040B704700BF8446104662468C461A
:100A68001946634600E000BF01B5FFF7B7FF00284D
:100A780048BF10F1000F01BD4DF808EDFFF7F4FF76
:100A88000CBF012000205DF808FB00BF4DF808ED01
:100A9800FFF7EAFF34BF012000205DF808FB00BF24
:100AA8004DF808EDFFF7E0FF94BF012000205DF846
:100AB80008FB00BF4DF808EDFFF7CEFF94BF0120FB
:100AC80000205DF808FB00BF4DF808EDFFF7C4FFF4
:100AD80034BF012000205DF808FB00BF4FEA410C3D
:100AE8007FEA6C5C02D150EA013C0AD14FEA430C20
:100AF8007FEA6C5C02D152EA033C02D14FF000005D
:100B080070474FF0010070474FEA410212F500129A
:100B180015D211D56FF47873B3EB625212D94FEA3C
:100B2800C12343F0004343EA505311F0004F23FA26
:100B380002F018BF404270474FF00000704750EA7B
:100B4800013005D111F0004008BF6FF00040704738
:100B58004FF00000704700BF4FEA4102B2F1E04396
:100B680024BFB3F5001CDCF1FE5C0DD901F0004C8C
:100B78004FEAC0024CEA5070B2F1004F40EB8300DC
:100B880008BF20F00100704711F0804F21D113F108
:100B98003872BCBF01F00040704741F480114FEA41
:100BA8005252C2F11802C2F1200C10FA0CF320FACA
:100BB80002F018BF40F001004FEAC1234FEAD323E7
:100BC80003FA0CFC40EA0C0023FA02F34FEA430351
:100BD800CCE77FEA625307D150EA01331EBF4FF0DA
:100BE800FE4040F44000704701F0004040F0FE40F5
:100BF80040F40000704700BF80F0004002E000BFF2
:100C080081F0004142001FBF5FEA410392EA030FEF
:100C18007FEA226C7FEA236C6AD04FEA1262D2EB39
:100C28001363C1BFD218414048404140B8BF5B423E
:100C3800192B88BF704710F0004F40F4000020F0D7
:100C48007F4018BF404211F0004F41F4000121F0ED
:100C58007F4118BF494292EA030F3FD0A2F1010237
:100C680041FA03FC10EB0C00C3F1200301FA03F175
:100C780000F0004302D5494260EB4000B0F5000F98
:100C880013D3B0F1807F06D340084FEA310102F157
:100C98000102FE2A51D2B1F1004F40EBC25008BF09
:100CA80020F0010040EA03007047490040EB0000D3
:100CB80010F4000FA2F10102EDD1B0FA80FCACF102
:100CC800080CB2EB0C0200FA0CF0AABF00EBC25001
:100CD80052421843BCBFD0401843704792F0000FEF
:100CE80081F4000106BF80F400000132013BB5E742
:100CF8004FEA41037FEA226C18BF7FEA236C21D0B8
:100D080092EA030F04D092F0000F08BF084670471C
:100D180090EA010F1CBF0020704712F07F4F04D1EA
:100D2800400028BF40F00040704712F100723CBFFD
:100D380000F50000704700F0004343F0FE4040F427
:100D4800000070477FEA226216BF08467FEA2363E5
:100D58000146420206BF5FEA412390EA010F40F4D0
:100D6800800070474FF0000304E000BF10F000431C
:100D780048BF40425FEA000C08BF704743F0964303
:100D880001464FF000001CE050EA010208BF70471E
:100D98004FF000030AE000BF50EA010208BF7047A5
:100DA80011F0004302D5404261EB41015FEA010CBA
:100DB80002BF84460146002043F0B64308BFA3F1B2
:100DC8008053A3F50003BCFA8CF2083AA3EBC25394
:100DD80010DB01FA02FC634400FA02FCC2F12002B3
:100DE800BCF1004F20FA02F243EB020008BF20F0EA
:100DF8000100704702F1200201FA02FCC2F1200250
:100E080050EA4C0021FA02F243EB020008BF20EA44
:100E1800DC7070474FF0FF0C1CEAD0521EBF1CEA72
:100E2800D15392EA0C0F93EA0C0F6FD01A4480EA60
:100E3800010C400218BF5FEA41211ED04FF0006349
:100E480043EA501043EA5111A0FB01310CF0004075
:100E5800B1F5000F3EBF490041EAD3715B0040EA9B
:100E6800010062F17F02FD2A1DD8B3F1004F40EB6B
:100E7800C25008BF20F00100704790F0000F0CF03E
:100E8800004C08BF49024CEA502040EA51207F3A02
:100E9800C2BFD2F1FF0340EAC250704740F40000DD
:100EA8004FF00003013A5DDC12F1190FDCBF00F0CE
:100EB80000407047C2F10002410021FA02F1C2F17C
:100EC800200200FA02FC5FEA310040F1000053EA18
:100ED8004C0308BF20EADC70704792F0000F00F066
:100EE800004C02BF400010F4000F013AF9D040EA6C
:100EF8000C0093F0000F01F0004C02BF490011F400
:100F0800000F013BF9D041EA0C018FE70CEAD153FD
:100F180092EA0C0F18BF93EA0C0F0AD030F0004C7D
:100F280018BF31F0004CD8D180EA010000F0004031
:100F3800704790F0000F17BF90F0004F084691F0EF
:100F4800000F91F0004F14D092EA0C0F01D1420229
:100F58000FD193EA0C0F03D14B0218BF084608D1F2
:100F680080EA010000F0004040F0FE4040F400003C
:100F7800704740F0FE4040F4400070474FF0FF0CCF
:100F88001CEAD0521EBF1CEAD15392EA0C0F93EA16
:100F98000C0F69D0A2EB030280EA010C49024FEA68
:100FA800402037D04FF0805343EA111143EA101321
:100FB8000CF000408B4238BF5B0042F17D024FF4D9
:100FC800000C8B4224BF5B1A40EA0C00B3EB510FB4
:100FD80024BFA3EB510340EA5C00B3EB910F24BF9D
:100FE800A3EB910340EA9C00B3EBD10F24BFA3EB22
:100FF800D10340EADC001B0118BF5FEA1C1CE0D1EA
:10100800FD2A3FF650AF8B4240EBC25008BF20F09C
:10101800010070470CF0004C4CEA50207F32C2BFF0
:10102800D2F1FF0340EAC250704740F400004FF08D
:101038000003013A37E792F0000F00F0004C02BFBE
:10104800400010F4000F013AF9D040EA0C0093F088
:10105800000F01F0004C02BF490011F4000F013BE2
:10106800F9D041EA0C0195E70CEAD15392EA0C0F4A
:1010780008D142027FF47DAF93EA0C0F7FF470AF82
:10108800084676E793EA0C0F04D14B023FF44CAFC5
:1010980008466EE730F0004C18BF31F0004CCAD15A
:1010A80030F000427FF45CAF31F000437FF43CAF96
:1010B8005FE700BF4FF0FF3C06E000BF4FF0010CB8
:1010C80002E000BF4FF0010C4DF804CD4FEA40029A
:1010D8004FEA41037FEA226C18BF7FEA236C11D0E4
:1010E80001B052EA530C18BF90EA010F58BFB2EB97
:1010F800030088BFC81738BF6FEAE17018BF40F017
:10110800010070477FEA226C02D15FEA402C05D1CA
:101118007FEA236CE4D15FEA412CE1D05DF8040B4F
:10112800704700BF844608466146FFE70FB5FFF7E2
:10113800C9FF002848BF10F1000F0FBD4DF808ED9A
:10114800FFF7F4FF0CBF012000205DF808FB00BF8B
:101158004DF808EDFFF7EAFF34BF012000205DF8E5
:1011680008FB00BF4DF808EDFFF7E0FF94BF012032
:1011780000205DF808FB00BF4DF808EDFFF7D2FF2F
:1011880094BF012000205DF808FB00BF4DF808ED72
:10119800FFF7C8FF34BF012000205DF808FB00BF3F
:1011A8004FEA4002B2F1FE4F0FD34FF09E03B3EB6C
:1011B80012620DD94FEA002343F0004310F0004FAC
:1011C80023FA02F018BF404270474FF00000704702
:1011D80012F1610F01D1420205D110F0004008BFA1
:1011E8006FF0004070474FF00000704753B94AB99C
:1011F800002908BF00281CBF4FF0FF314FF0FF3017
:1012080000F074B9ADF1080C6DE904CE00F006F8F1
:10121800DDF804E0DDE9022304B070472DE9F0476A
:101228008C460446089E002B4BD18A42154667D946
:10123800B2FA82F24AB1C2F1200701FA02F320FAA7
:1012480007F7954047EA030C94404FEA154EBCFB5C
:10125800FEF71FFA85F80EFB17C307FB08F9210CE8
:1012680041EA0343994509D9EB1807F1FF3180F0AA
:101278001C81994540F21981023F2B44A3EB0903D5
:10128800B3FBFEF00EFB103300FB08F1A4B244EAF6
:101298000344A14209D92C1900F1FF3380F00781DA
:1012A800A14240F2048102382C4440EA074000275A
:1012B800641A1EB10023D440C6E900433946BDE88C
:1012C800F0878B4209D9002E00F0EC800027C6E990
:1012D800000138463946BDE8F087B3FA83F7002F96
:1012E80048D18B4202D3824200F2FB80841A61EB20
:1012F800030301209C46002EE0D0C6E9004CDDE740
:1013080002B9FFDEB2FA82F2002A40F08F8001278C
:10131800491B4FEA15481FFA85F9B1FBF8FE08FB8F
:101328001E1109FB0EF04FEA144C4CEA0143984297
:1013380007D9EB180EF1FF3102D2984200F2CD80A6
:101348008E461B1AB3FBF8F008FB103309FB00F9B3
:10135800A4B244EA0344A14507D92C1900F1FF338C
:1013680002D2A14500F2B6801846A4EB090440EA6F
:101378000E409EE7C7F12005BB4022FA05FC4CEA67
:10138800030C21FA05F44FEA1C4EB4FBFEF91FFAD0
:101398008CF80EFB194420FA05F3B94009FB08FA4A
:1013A80019430B0C43EA0444A24502FA07F200FA77
:1013B80007F30BD91CEB040409F1FF3080F0888097
:1013C800A24540F28580A9F102096444A4EB0A040D
:1013D800B4FBFEF00EFB104400FB08FA89B241EAA8
:1013E8000444A24508D91CEB040400F1FF316BD278
:1013F800A24569D90238644440EA0940A0FB028941
:10140800A4EB0A044C454146CE4654D351D0002E95
:1014180069D05A1A64EB0E0404FA05F522FA07F3A8
:10142800FC401D43C6E90054002747E79540C2F138
:10143800200321FA03F04FEA1548B0FBF8F71FFA2A
:1014480085F908FB170024FA03F3914007FB09FC10
:101458000B43190C41EA00418C4504FA02F407D900
:10146800691807F1FF3031D28C452FD9023F294442
:10147800A1EB0C01B1FBF8F008FB101C00FB09FE06
:1014880099B241EA0C418E4507D9691800F1FF333A
:1014980018D28E4516D902382944A1EB0E0140EA2C
:1014A80007473AE73746304608E70F46E6E6184664
:1014B800FBE64345ABD2B8EB020169EB0C020138FD
:1014C8009646A4E71846E8E7084695E70746CFE7B3
:1014D80081467BE702382C4447E7AEF1020E2B44E5
:1014E8002FE7384607E73746E8E600BF704700BFF2
:1014F8007047000010B50446074B1868074BA3FB5C
:101508000030800900F0CCFA002221464FF0FF306D
:1015180000F086FA002010BD20000020D34D621094
:1015280008B5074A136843F010031360032000F05E
:1015380065FA0020FFF7DEFFFFF7DAFF002008BD9D
:1015480000200240024A136801331360704700BF4D
:10155800540A0020014B1868704700BF540A002045
:1015680030B583B00190FFF7F5FF0546019CB4F153
:10157800FF3F00D00134FFF7EDFF401BA042FAD334
:1015880003B030BD7047000030B482B0002301932F
:1015980090F82430012B00F08B800246012380F85C
:1015A80024304B68062B29D80568686B03EB830346
:1015B800053B1F249C4020EA04000C6804FA03F34E
:1015C80003436B630B68092B38D91568E86803EB8C
:1015D80043031E3B07249C4020EA04008C6804FA5D
:1015E80003F30343EB600B68103B012B34D9002055
:1015F800002382F8243002B030BC70470C2B0ED880
:101608000568286B03EB8303233B1F249C4020EAD7
:1016180004000C6804FA03F303432B63D2E705685C
:10162800E86A03EB8303413B1F249C4020EA040043
:101638000C6804FA03F30343EB62C3E715682869EF
:1016480003EB430307249C4020EA04008C6804FA57
:1016580003F303432B61C6E713681648834205D09A
:10166800936A43F0200393620120C1E7986810F45D
:10167800000F1BD1986840F4000098600B68102B8D
:1016880001D00020B4E70C4B1B680C49A1FB0313E5
:101698009B0C03EB83035900019102E0019B013B82
:1016A8000193019B002BF9D10020A1E700209FE7BF
:1016B8000220A0E7002401402000002083DE1B4315
:1016C80030B583B00023019303689A6812F0010FC4
:1016D8002ED19A6842F001029A60174B1B68174A8C
:1016E800A2FB03239B0C019302E0019B013B0193A6
:1016F800019B002BF9D10446FFF72CFF0546236810
:101708009B6813F0010F11D1FFF724FF401B02283B
:10171800F5D9A36A43F01003A362E36A43F0010317
:10172800E362002384F82430012002E0002000E076
:10173800002003B030BD00BF2000002083DE1B4323
:1017480090F82430012B6AD010B50446012380F8A4
:101758002430FFF7B5FF024600285BD1A36A23F4C3
:10176800407323F0010343F48073A36223682D4977
:101778008B4227D0A16A21F48011A162596811F423
:10178800806F05D0A16A21F4405141F48051A162D3
:10179800A16A11F4805F2BD0E16A21F00601E162B1
:1017A800002184F824106FF00201196023689968F9
:1017B80001F46021B1F5602F1DD0996841F48011C2
:1017C80099602AE0A1F58061496811F4702FD1D0A1
:1017D800A16A41F48011A1621349496811F4806F2C
:1017E800D6D0A16A21F4405141F48051A162CFE7DB
:1017F8000021E162D4E70B498B4204D0996841F497
:10180800A001996009E0A1F58061496811F4702F81
:10181800D3D1F3E7002384F82430104610BD022208
:1018280010467047002801400024014038B503687D
:101838009A6812F0010F01D1002038BD04469A6859
:1018480022F001029A60FFF785FE054623689B682F
:1018580013F0010F0ED0FFF77DFE401B0228F5D9CB
:10186800A36A43F01003A362E36A43F00103E3624F
:101878000120E2E70020E0E7002800F08A8070B548
:101888000446836A002B36D02046FFF7CFFFA36AB1
:1018980013F0100377D1002875D1A26A22F4885278
:1018A80022F0020242F00202A262626825683A4906
:1018B8008D4226D0E1690A43E66842EA4602A168F9
:1018C800B1F5807F27D0012922D06169012925D06F
:1018D800696821F469410B436B6021688D682F4B5F
:1018E8002B4013438B60A368B3F5807F27D0012B6F
:1018F80025D0002126E0C36280F82430FFF742FE9D
:10190800C2E7E169B1F5402FD5D14FF40021D2E704
:101918004FF48073D9E74FF48073D6E736B9A169DD
:10192800013943EA413343F40063D1E7A16A41F046
:101938002001A162E16A41F00101E162C8E723697F
:10194800013B19052568EB6A23F470030B43EB622E
:1019580023689968124B0B409A420BD0A36A23F074
:10196800120343F01003A362E36A43F00103E36246
:1019780001200DE00023E362A36A23F0030343F090
:101988000103A36204E0A36A43F01003A3620120E9
:1019980070BD0120704700BF003C0140FDF7E1FF2A
:1019A800FE0E1FFF034690F82420012A20D00122B2
:1019B80080F824200268906810F0010F07D10D48C4
:1019C800806810F0010F02D10B48824208D09A6A51
:1019D80042F020029A620120002283F824207047F6
:1019E800506820F470200968014351600020F3E733
:1019F800022070470028014000240140074AD368AC
:101A080023F4E0631B041B0C000200F4E06018439D
:101A180040F0BF6040F40030D060704700ED00E057
:101A280030B4174BDB68C3F30223C3F10704042C5B
:101A380028BF04241D1D062D18D9033B4FF0FF3580
:101A480005FA04F421EA0401994005FA03F322EAAD
:101A58000303194300280BDB0901C9B200F16040F8
:101A680000F5614080F8001330BC70470023E5E7BB
:101A780000F00F000901C9B2024B1954F4E700BF86
:101A880000ED00E014ED00E000F01F024009012322
:101A98009340024A42F82030704700BF00E100E05E
:101AA8000138B0F1807F0AD2064B5860064AF0210F
:101AB80082F823100020986007221A6070470120DE
:101AC800704700BF10E000E000ED00E0042805D0FA
:101AD800054A136823F0040313607047024A136829
:101AE80043F004031360704710E000E0704708B546
:101AF800FFF7FCFF08BD70B4066CC56B0124B44049
:101B08006C60046863604368102B05D003689960B3
:101B18000368DA6070BC704703689A600368D9602C
:101B2800F8E7000000283FD010B4034601681F4AB8
:101B380091422ED81E4A0A441E49A1FB02121209DC
:101B4800920002641C4AC263022283F821201868AA
:101B5800016821F47F5121F030015A689C682243C2
:101B6800DC6822431C6922435C6922439C69224346
:101B7800DC6922430A43026000209862D862186335
:101B880058639863012283F8212083F8200010BC51
:101B980070470A4A0A440749A1FB02121209920037
:101BA8000264074AC263CFE7012070470704024076
:101BB800F8FFFDBFCDCCCCCC00000240F8FBFDBF48
:101BC8000004024038B590F82040012C32D001249E
:101BD80080F8204090F82140012C04D0002380F8A0
:101BE8002030022038BD0446022084F8210000205D
:101BF800A0632568286820F0010028602046FFF7C8
:101C08007AFFE36A5BB12268136843F00E0313603E
:101C18002268136843F0010313600020E2E722689A
:101C2800136823F0040313602268136843F00A035F
:101C38001360EDE70220D5E7034601680A6822F041
:101C48000E020A6001680A6822F001020A60026C4A
:101C5800C06B012101FA02F2426083F821100020D2
:101C680083F820007047000038B5C36B1A68046811
:101C78002568016C04238B40134200F09B8015F00B
:101C8800040F00F09780236813F0200F03D1236816
:101C980023F0040323600368AA4A934246D9783A9A
:101CA800934224D01432934228D01432934227D03E
:101CB8001432934227D01432934227D014329342DD
:101CC80027D01432934227D002F56272934226D06D
:101CD8001432934225D01432934224D014329342C2
:101CE80002D04FF4802203E04FF4804200E0042247
:101CF800954B5A60C36A03B1984738BD4022F7E74D
:101D08004FF48062F4E74FF48042F1E74FF4802209
:101D1800EEE74FF48002EBE74FF08062E8E7042239
:101D2800E6E74022E4E74FF48062E1E7874A93421E
:101D380024D01432934225D01432934224D0143242
:101D4800934224D01432934224D01432934224D0A4
:101D58001432934224D002F56272934223D0143293
:101D6800934222D01432934221D01432934202D0AB
:101D78004FF4802203E04FF4804200E00422744BC9
:101D88005A60B7E74022FAE74FF48062F7E74FF46A
:101D98008042F4E74FF48022F1E74FF48002EEE747
:101DA8004FF08062EBE70422E9E74022E7E74FF4CF
:101DB8008062E4E702238B40134200F0A38015F011
:101DC800020F00F09F80236813F0200F06D12368CC
:101DD80023F00A032360012380F821300368594A5D
:101DE80093424BD9783A934224D0143293422DD05F
:101DF800143293422CD0143293422CD01432934292
:101E08002CD0143293422CD0143293422CD002F5A9
:101E1800627293422BD0143293422AD014329342E6
:101E280029D01432934202D04FF4003203E04FF429
:101E3800005200E00222444B5A60002380F8203010
:101E4800836A002B3FF459AF984756E72022F2E700
:101E58004FF40072EFE74FF40052ECE74FF4003212
:101E6800E9E74FF40012E6E74FF00072E3E70222D9
:101E7800E1E72022DFE74FF40072DCE7334A9342C0
:101E880024D01432934225D01432934224D01432F1
:101E9800934224D01432934224D01432934224D053
:101EA8001432934224D002F56272934223D0143242
:101EB800934222D01432934221D01432934202D05A
:101EC8004FF4003203E04FF4005200E00222204BAE
:101ED8005A60B2E72022FAE74FF40072F7E74FF4AE
:101EE8000052F4E74FF40032F1E74FF40012EEE746
:101EF8004FF00072EBE70222E9E72022E7E74FF410
:101F08000072E4E7082303FA01F111423FF4F5AE49
:101F180015F0080F3FF4F1AE236823F00E03236099
:101F2800026CC16B012303FA02F24A60836380F8F2
:101F38002130002380F82030036B002B3FF4DDAE06
:101F48009847DAE680000240000402400800024098
:101F580000000240F0B482B000263546ABE0002C09
:101F680063D0012C00D1CE68FF2B72D88446FF2B9A
:101F780072D8AC00DCF800200F27A74022EA07023D
:101F880006FA04F42243CCF800204A6812F0805F75
:101F980000F09080654A946944F001049461926964
:101FA80002F001020192019AAC08A71C604A52F89B
:101FB80027C005F0030297000F22BA402CEA020C52
:101FC8005C4A90424ED002F58062904200F08B80CD
:101FD80002F58062904200F0888002F580629042AB
:101FE80000F0858002F58062904200F0828002F560
:101FF8008062904234D0062235E04F4FBC4214D064
:102008000BD94E4FBC4210D007F58037BC420CD0DC
:10201800A7F58017BC42A7D107E0A7F58017BC42F7
:1020280003D007F58037BC429ED18C687CB1012C67
:1020380008D04261082697E7CE68083694E7CE684C
:102048000C3691E7026108268EE700268CE7042605
:102058008AE700F1040C8AE7A5F10804A40089E7DF
:10206800052200E00022BA4042EA0C020234304F56
:1020780047F824204A6812F4803F3CD0304C22684C
:102088001A4322604A6812F4003F3AD02C4C626826
:102098001A4362604A6812F4801F38D0284CA2683C
:1020A8001A43A2604A6812F4001F36D0244CE26832
:1020B8001343E36001350F2D35D80122AA400B6880
:1020C80013409A42F6D14C68122CB8D095D8022CFD
:1020D800B2D07FF644AF032CB7D0112C7FF444AFB5
:1020E800CE68043640E70122BDE70222BBE703229F
:1020F800B9E70422B7E7124C226822EA03022260F9
:10210800C0E70F4C626822EA03026260C2E70C4C27
:10211800A26822EA0302A260C4E7094CE26822EA44
:102128000303E360C6E702B0F0BC7047001002404A
:10213800000001400008014000002110000031109B
:10214800000401408368194201D100207047012032
:10215800704712B909040161704701617047C3688B
:102168005940C1607047000082B0084B1B68084A9C
:10217800A2FB03235B0A00FB03F0019000BF019B55
:102188005A1E0192002BF9D102B07047200000209E
:10219800D34D621070B582B00446036813F0010F86
:1021A8002CD0AB4B5B6803F00C03042B1DD0A84B61
:1021B8005B6803F00C03082B12D06368B3F5803F0B
:1021C80041D0002B55D103F1804303F504331A683D
:1021D80022F480321A601A6822F480221A6037E0EA
:1021E8009B4B5B6813F4803FE7D0994B1B6813F453
:1021F800003F03D06368002B00F0AE81236813F022
:10220800020F76D0924B5B6813F00C0F5FD0904BA7
:102218005B6803F00C03082B54D02369002B00F0F3
:102228008A808C4B01221A60FFF794F90546884B87
:102238001B6813F0020F75D1FFF78CF9401B0228B9
:10224800F5D903208BE1824A136843F48033136085
:10225800636843B3FFF77EF905467D4B1B6813F4AB
:10226800003FCBD1FFF776F9401B6428F5D903204E
:1022780075E1B3F5A02F09D0754B1A6822F48032A6
:102288001A601A6822F480221A60E1E703F1804399
:10229800A3F53C331A6842F480221A601A6842F4A3
:1022A80080321A60D4E7FFF755F90546684B1B687A
:1022B80013F4003FA2D0FFF74DF9401B6428F5D96D
:1022C80003204CE1624B5B6813F4803FA5D1604B5F
:1022D8001B6813F0020F04D02369012B01D00120E1
:1022E8003DE15B4A136823F0F803616943EAC103DF
:1022F8001360236813F0080F32D0A369002B5BD05A
:10230800554B01221A60FFF725F90546504B5B6AC9
:1023180013F0020F21D1FFF71DF9401B0228F5D950
:1023280003201CE14A4A136823F0F803616943EA71
:10233800C1031360DDE7474B00221A60FFF70AF973
:102348000546434B1B6813F0020FD2D0FFF702F982
:10235800401B0228F5D9032001E10120FFF704FF03
:10236800236813F0040F00F09780394BDB6913F0F2
:10237800805F33D1364BDA6942F08052DA61DB692B
:1023880003F080530193019B0125344B1B6813F420
:10239800807F25D0E368012B36D0002B4CD103F188
:1023A800804303F504331A6A22F001021A621A6A9A
:1023B80022F004021A622CE0274B00221A60FFF771
:1023C800C9F80546224B5B6A13F0020FC8D0FFF725
:1023D800C1F8401B0228F5D90320C0E00025D4E746
:1023E8001E4A136843F480731360FFF7B3F8064678
:1023F8001A4B1B6813F4807FCCD1FFF7ABF8801B16
:102408006428F5D90320AAE0114A136A43F00103AE
:102418001362E36873B3FFF79DF806460C4B1B6A1B
:1024280013F0020F37D1FFF795F8801B41F288337C
:102438009842F3D9032092E0052B11D0044B1A6A75
:1024480022F001021A621A6A22F004021A62E0E714
:1024580000100240000042428004424200700040E6
:10246800414B1A6A42F004021A621A6A42F00102E7
:102478001A62CEE7FFF76EF806463B4B1B6A13F06D
:10248800020F08D0FFF766F8801B41F288339842A4
:10249800F3D9032063E0E5B9E369002B5ED0324A43
:1024A800526802F00C02082A5BD0022B17D02F4B7F
:1024B80000221A60FFF74EF804462B4B1B6813F0F6
:1024C800007F47D0FFF746F8001B0228F5D9032004
:1024D80045E0254AD36923F08053D361DCE7234BD9
:1024E80000221A60FFF736F805461F4B1B6813F0E9
:1024F800007F06D0FFF72EF8401B0228F5D90320ED
:102508002DE0236AB3F5803F1AD017494B6823F4AE
:102518007413226A606A024313434B60134B01220F
:102528001A60FFF717F804460F4B1B6813F0007F7B
:102538000ED1FFF70FF8001B0228F5D903200EE093
:10254800094A536823F40033A1680B435360DCE75E
:10255800002004E0002002E0012000E0002002B09A
:1025680070BD0120FBE700BF00100240600042423E
:1025780010B487B0164C94E80F000DF1180C0CE954
:102588000F00238AADF80430124B5B6803F00C028D
:10259800082A1AD1C3F38342624412F8100C13F4C8
:1025A800803F05D10C4B03FB00F007B010BC70470F
:1025B800084B5B68C3F34043634413F8142C074B80
:1025C800B3FBF2F300FB03F0EFE70448EDE700BFCD
:1025D800E07D00080010024000093D0000127A006A
:1025E800594B1B6803F007038B420CD2564A1368F9
:1025F80023F007030B431360136803F007038B42B0
:1026080001D00120704770B5036813F0020F06D09F
:102618004E4A536823F0F0038468234353600C4602
:102628000546036813F0010F52D04368012B23D0ED
:10263800022B28D0454A126812F0020F00F082805F
:1026480042494A6822F0030213434B60FEF782FFB7
:1026580006466B68012B1DD0022B2AD03B4B5B68CA
:1026680013F00C0F34D0FEF775FF801B41F288334E
:102678009842F3D9032064E0344A126812F4003F08
:10268800DED101205DE0314A126812F0007FD7D117
:10269800012056E02D4B5B6803F00C03042B17D088
:1026A800FEF758FF801B41F288339842F2D9032085
:1026B80047E0264B5B6803F00C03082B08D0FEF7B5
:1026C80049FF801B41F288339842F2D9032038E051
:1026D8001D4B1B6803F00703A3420CD91A4A136861
:1026E80023F0070323431360136803F00703A3428F
:1026F80001D0012025E02B6813F0040F06D0134AFF
:10270800536823F4E063E9680B4353602B6813F0C4
:10271800080F07D00D4A536823F46053296943EA28
:10272800C1035360FFF724FF084B5B68C3F303132F
:10273800074AD35CD840074B18600020FEF7DAFE42
:10274800002070BD0120FCE700200240001002407C
:10275800347E000820000020014B1868704700BF35
:102768002000002008B5FFF7F7FF044B5B68C3F3B0
:102778000223034AD35CD84008BD00BF00100240C2
:10278800447E000808B5FFF7E7FF044B5B68C3F316
:10279800C223034AD35CD84008BD00BF00100240E2
:1027A800447E000870B582B00446036813F0010F38
:1027B80034D03E4BDB6913F0805F48D13B4BDA697C
:1027C80042F08052DA61DB6903F080530193019B88
:1027D8000125374B1B6813F4807F3AD0334B1B6AB3
:1027E80013F4407311D0626802F440729A420CD01C
:1027F8002E4A136A23F440702E4901260E600026E3
:102808000E60106213F0010F37D1284A136A23F4BF
:10281800407361680B431362002D3FD1236813F0A6
:10282800020F06D0214A536823F44043A1680B43A2
:102838005360236813F0100F35D01C4A536823F4F3
:10284800800361690B435360002002B070BD00250E
:10285800BFE7174A136843F480731360FEF77AFEE4
:102868000646134B1B6813F4807FB7D1FEF772FE40
:10287800801B6428F5D90320E7E7FEF76BFE0646C0
:102888000A4B1B6A13F0020FBFD1FEF763FE801BD1
:1028980041F288339842F3D90320D6E7D36923F06D
:1028A8008053D361BAE70020CFE700BF0010024091
:1028B800007000404004424230B4036A23F0010330
:1028C8000362056A4268846924F073040B681C4338
:1028D80025F002058B682B43104DA84203D005F55F
:1028E8000065A84205D123F00803CD682B4323F0E7
:1028F80004030A4DA84203D005F50065A84205D196
:1029080022F440724D6915438A692A434260846102
:102918004A684263036230BC704700BF002C014024
:1029280030B4036A23F480730362036A4268C4699B
:1029380024F073040D682C4323F400738D6843EA74
:102948000523124DA84203D005F50065A84206D11B
:1029580023F40063CD6843EA052323F480630B4D19
:10296800A84203D005F50065A84207D122F44052D9
:102978004D6942EA05128D6942EA05124260C46156
:102988004A68C263036230BC704700BF002C014034
:1029980030B4036A23F480530362036A4468C2694B
:1029A80022F4E6420D6842EA052223F400538D68BA
:1029B80043EA0533094DA84203D005F50065A8424E
:1029C80004D124F480444D6944EA85144460C2610A
:1029D8004A680264036230BC704700BF002C0140A3
:1029E80010B4036A046A24F001040462846924F0C0
:1029F800F00444EA021223F00A030B4382610362E3
:102A080010BC704710B4036A23F010030362846992
:102A1800036A24F4704444EA023223F0A00343EA30
:102A280001138261036210BC704710B4846824F4F7
:102A38007F4442EA03230B432343836010BC70475F
:102A480010B50468A26822F070024B68134323F0A3
:102A580007030A681343A3604B68502B1ED00AD99A
:102A6800602B21D0702B05D10B698A68C968006872
:102A7800FFF7DBFF10BD402BFCD103681C6A1A6A04
:102A880022F001021A620268936923F0F0030969CF
:102A980043EA0113936103681C62EBE70A698968DA
:102AA8000068FFF79DFFE5E70A6989680068FFF796
:102AB800A9FFDFE7704738B590F83C30012B18D0F4
:102AC8000446012580F83C50022380F83D30FFF78A
:102AD800B7FF2268D36823F04003D3602268D36825
:102AE80023F48043D36084F83D50002084F83C00F0
:102AF80038BD0220FCE700000368244A904212D047
:102B080002F5006290420ED0B0F1804F0BD0A2F5D2
:102B18009832904207D002F58062904203D002F5C5
:102B28008062904203D123F070034A681343174A26
:102B3800904212D002F5006290420ED0B0F1804F60
:102B48000BD0A2F59832904207D002F580629042ED
:102B580003D002F58062904203D123F44073CA681F
:102B6800134323F080034A69134303608B68C362ED
:102B78000B688362054B984203D003F500639842C3
:102B880001D10B690363012343617047002C0140A5
:102B9800A8B110B5044690F83D305BB1022384F823
:102BA8003D30211D2068FFF7A7FF012384F83D3041
:102BB800002010BD80F83C30FFF77CFFEEE70120D5
:102BC8007047000030B4036A23F010030362036AFD
:102BD8004468826922F4E6420D6842EA052223F03D
:102BE80020038D6843EA0513114DA84203D005F56B
:102BF8000065A84206D123F08003CD6843EA051397
:102C080023F040030A4DA84203D005F50065A84209
:102C180007D124F440644D6944EA85048D6944EA87
:102C28008504446082614A688263036230BC7047ED
:102C3800002C014038B590F83C30012B66D00D4689
:102C48000446012380F83C30022380F83D300C2AEA
:102C58001AD8DFE802F007191919201919193419B7
:102C6800191947000068FFF727FE2268936943F0A7
:102C7800080393612268936923F00403936122682F
:102C8800936929690B439361012384F83D3000203F
:102C980084F83C0038BD0068FFF794FF2268936908
:102CA80043F4006393612268936923F4806393611A
:102CB80022689369296943EA01239361E4E700687C
:102CC800FFF72EFE2268D36943F00803D361226818
:102CD800D36923F00403D3612268D36929690B43BC
:102CE800D361D1E70068FFF753FE2268D36943F444
:102CF8000063D3612268D36923F48063D3612268B7
:102D0800D369296943EA0123D361BDE70220C1E7FA
:102D180010B4012303FA01F4036A23EA04030362EB
:102D2800036A8A401343036210BC704710B5044617
:102D380001220068FFF7ECFF2368094A934203D099
:102D480002F50062934203D15A6C42F400425A647D
:102D58002268136843F001031360002010BD00BF10
:102D6800002C014010B4042303FA01F4036A23EA97
:102D780004030362036A8A401343036210BC70476A
:102D880010B5044604220068FFF7ECFF2268536C74
:102D980043F4004353642268136843F0010313604B
:102DA800002010BD90F83C30012B25D0012380F87D
:102DB8003C30CB6823F440738A68134323F4806360
:102DC8004A68134323F400630A68134323F48053C7
:102DD8000A69134323F400534A69134323F48043D5
:102DE8008A69134323F4004313430268536400239E
:102DF80080F83C30184670470220704790F83C3005
:102E0800012B22D030B4012280F83C20022380F824
:102E18003D300468636823F0700363600468636886
:102E28000D682B4363600468A36823F08003A360E4
:102E38000468A36849680B43A36080F83D20002319
:102E480080F83C30184630BC704702207047026852
:102E5800D36823F0C003D360202380F8393070474B
:102E68000268D36823F49073D3600268536923F02F
:102E780001035361202380F83A3070472DE9F84365
:102E880005460268136923F44053C1680B43136174
:102E9800836802691343426913430168CA6822F4CC
:102EA800B05222F00C021343CB600268536923F43A
:102EB800407381690B4353610268594B9A4257D05A
:102EC800FFF750FC00EB800000EB80006C68A4006A
:102ED800B0FBF4F4534FA7FB043464092601FFF751
:102EE80041FC00EB800000EB80006C68A400B0FBA4
:102EF800F4F9FFF737FC00EB800000EB80006C680A
:102F0800A400B0FBF4F4A7FB043464094FF0640890
:102F180008FB149424013234A7FB0434640904F038
:102F2800F0043444FFF71EFC00EB800000EB800047
:102F38006E68B600B0FBF6F6FFF714FC00EB8000F5
:102F480000EB80006B689B00B0FBF3F0A7FB003040
:102F5800400908FB10684FEA081808F13208A7FB77
:102F68000837C7F343172B6827449F60BDE8F883E9
:102F7800FFF708FC00EB800000EB80006C68A40001
:102F8800B0FBF4F4274FA7FB043464092601FFF7CC
:102F9800F9FB00EB800000EB80006C68A400B0FB3C
:102FA800F4F9FFF7EFFB00EB800000EB80006C68A2
:102FB800A400B0FBF4F4A7FB043464094FF06408E0
:102FC80008FB149424013234A7FB0434640904F088
:102FD800F0043444FFF7D6FB00EB800000EB8000E0
:102FE8006E68B600B0FBF6F6FFF7CCFB00EB80008E
:102FF80000EB80006B689B00B0FBF3F0A7FB003090
:10300800400908FB10684FEA081808F13208A7FBC6
:103018000837C7F343172B6827449F60A6E700BF0C
:10302800003801401F85EB512DE9F04105460F4658
:1030380016469846069C2B681B6837EA03030CBFA4
:1030480001230023B3421DD1B4F1FF3FF3D02CB1CB
:10305800FEF780FAA0EB0800A042ECD92A68D368F2
:1030680023F4D073D3602A68536923F001035361B2
:10307800202385F8393085F83A30002385F8383030
:10308800032000E00020BDE8F081704758B310B578
:10309800044690F839300BB3242384F83930226879
:1030A800D36823F40053D3602046FFF7E7FE226875
:1030B800136923F4904313612268536923F02A03A8
:1030C80053612268D36843F40053D3600020E0635F
:1030D800202384F8393084F83A3010BD80F838302D
:1030E800FFF7D3FFD8E7012070472DE9F04182B000
:1030F8001E4690F83930DBB2202B55D104460D46D8
:103108009046002955D0002A55D090F83830012B28
:1031180053D0012380F838300023C363212380F87B
:103128003930FEF717FA0746A4F82480A4F8268059
:1031380010E000963B46002280212046FFF774FFEE
:1031480000283CD12B882268C3F308035360236905
:10315800C3B90235E38C9BB2B3B1E38C013B9BB29C
:10316800E384A368B3F5805FE3D000963B46002272
:1031780080212046FFF758FF18BB2A7823685A6039
:103188000135E7E70135E5E700963B460022402197
:103198002046FFF749FF0346A8B9202284F83920C2
:1031A800002284F8382000E00223184602B0BDE867
:1031B800F0810123F9E70123F7E70223F5E7032369
:1031C800F3E70323F1E70323EFE7000030B583B00B
:1031D80090F83A40E4B2202C3DD100293ED0002A94
:1031E8003ED090F83830012B3CD013460A460446AE
:1031F800012180F83810826283850025C563222169
:1032080080F83A10416B18488862616B1748C862A9
:10321800616B17480863616B4D6321680431606B0B
:10322800FEF7D0FC019523681A6801925A6801924A
:10323800019A84F83850DA6842F48072DA602268B9
:10324800536943F0010353612268536943F0400313
:103258005361284600E0022003B030BD0120FBE79F
:103268000120F9E70220F7E7E332000823330008DA
:103278002F33000810B5044601684A6990F83930C0
:10328800DBB2212B0AD021684A6902F0400294F887
:103298003A30DBB2222B11D0002010BD02F08002A0
:1032A800002AF0D04B6923F080034B61006B08B112
:1032B800FEF7C2FC2046FFF7CAFDE4E7002AEBD080
:1032C8004B6923F040034B61606B08B1FEF7B4FC17
:1032D8002046FFF7C5FDDFE7704708B5436A026877
:1032E800126812F0200F13D10022DA851968CA6813
:1032F80022F48072CA6019684A6922F001024A61A0
:1033080019684A6922F040024A61202283F83A206B
:103318001846FFF7E1FF08BD704708B5406AFFF798
:10332800FBFF08BD704710B5446A23685A6994F8D2
:103338003930DBB2212B10D023685A6902F04002E1
:1033480094F83A30DBB2222B11D0E36B43F0100330
:10335800E3632046FFF7E6FF10BD02F08002002A73
:10336800EAD00023E3842046FFF771FDE4E7002A52
:10337800EBD00023E3852046FFF772FDE5E7000068
:10338800774B02225A60774B1B68B3F57A7F5EDB76
:103398002DE9F041744B1A68744BA3FB02139B0987
:1033A8004FF47A7101FB13230BBB714C2068FDF7B6
:1033B800A3F865A3D3E90023FDF7F6F806460F4600
:1033C8006C4B9889FDF7CEFC6B49FDF723FDFDF7A3
:1033D80093F85FA3D3E90023FDF7E6F802460B460E
:1033E80030463946FCF72AFFFDF7B6FB2060614BF3
:1033F8005889624B1C68001BFDF76CF856A3D3E98B
:103408000023FDF7D1F800220023FDF73FFB002839
:1034180052D1584B5889001BFDF75CF84EA3D3E9ED
:103428000023FDF7C1F80022554BFDF74DFB00289E
:1034380052D1544B1B68052B4ED8534B1B78002B8D
:103448004AD0524A536C43F40043536449E0013371
:10345800444A1360474A90884D490B68034403EB7C
:10346800D3735B100B60D0884A490B68034403EBA5
:10347800D3735B100B60108847490B68034403EB58
:10348800D3735B100B60508844490B68034403EB0B
:10349800D3735B100B60508938490B68034403EB06
:1034A800D3735B100B6011893D4A13680B4403EB1F
:1034B800D3735B10136070472E4B5889001BFDF7C0
:1034C80009F825A3D3E90023FDF76EF80022354B50
:1034D800FDF7DCFA0028ACD02C4A536C23F40043E7
:1034E8005364244B18892E4B1C68001BFCF7F2FF11
:1034F80019A3D3E90023FDF757F800220023FDF7AD
:10350800C5FA002852D11B4B1889001BFCF7E2FFB3
:1035180011A3D3E90023FDF747F80022184BFDF764
:10352800D3FA002852D1174B1B68052B4ED8164BDF
:103538001B78002B4AD01C4A536C43F40043536455
:1035480049E000BFAFF30080AE47E17A14AEEF3F29
:103558007B14AE47E17A843F7B14AE47E17A943F0F
:1035680000000240000A0020F4090020D34D621038
:1035780000000020AC0C002017B9CE3C040000204D
:1035880000002E401C000020FC09002000340140EF
:103598000C0000201000002014000020180000205B
:1035A8000800002000002EC0002C0140904B188914
:1035B800001BFCF78FFF8CA3D3E90023FCF7F4FF73
:1035C80000228C4BFDF762FA0028ACD08A4A536C73
:1035D80023F40043536489498B6813F0200F0CBF10
:1035E800012300238A6812F0400F0CBF0122002239
:1035F800896811F0800F0CBF012500258049886873
:1036080010F4806F0CBF012000208C6814F4006F48
:103618000CBF01240024896811F4805F02EB450285
:1036280003EB4203774EF35C77490B600B6803F1B9
:1036380002030B600D68754B83FB0572A2EBE57204
:1036480002EB42024FEA4207A5EB07020A600CBFF1
:1036580002220022224400EB4202B05C6C4A106055
:10366800106802301060106883FB0043A3EBE0731E
:1036780003EB43035C00031B136009685C48838801
:10368800644A12689A1AC388634800681B1A052995
:1036980034D8DFE801F0032326292C2FD31A5F4AF8
:1036A80013605F4A1368013313605E4A14684CB3B1
:1036B8005D4AA2FB0312120B5C4909680131B2FB97
:1036C800F1F001FB1022EAB9B3FBF4F204FB123368
:1036D800EBB910215648FEF742FD18E04F4B1A602F
:1036E800DFE74E4B1A60DCE74C4A1360D9E74B4AD8
:1036F8001360D6E79B1A494A1360D2E7474B00226A
:103708001A60CEE7002210214948FEF722FD494BF6
:10371800D3F800C03C4B1B68052B2BD8DFE803F01F
:103728000312171C2226CCF1000064469C46424B2B
:103738001968374B1B68052B52D8DFE803F01F3F89
:1037480043474B4E6446CCF1000C0020EFE760463F
:10375800CCF1000C0024EAE7CCF1000460464FF0FD
:10376800000CE4E7CCF100040020E0E7CCF1000015
:103778000024DCE7002004468446D8E74E420F4682
:1037880019462C4B1B68002B40F398802B4B1D6867
:103798001D4B1B6805331D4A82FB03E2A2EBE37253
:1037A80002EB42024FEA420EA3EB0E02052A00F298
:1037B800B980DFE802F0456A6F74797E0F464942A6
:1037C8000026DEE70E4649420027DAE74F420E465A
:1037D8000021D6E74F420026D3E74E420027D0E724
:1037E800002637463146CCE77B14AE47E17A943F52
:1037F800AC0C002000002EC0002C0140000C014041
:1038080000100140F47D0008040A0020ABAAAA2A8F
:10381800080A00200C00002010000020F8090020F1
:10382800F4090020EC0900205917B7D1F00900204D
:10383800000801400C0A0020100A0020140A002089
:10384800C5F10008AE461546654474444044964B9D
:103858001B68002B40F3D780944B1B68944A12686E
:1038680002F1050C934A82FB0CE2A2EBEC7202EB2C
:1038780042024FEA420EACEB0E02052A00F2F98032
:10388800DFE802F058A8ADB2B7BCAE466D424FF0C3
:103898000008D9E7A8466D424FF0000ED4E7C5F1FD
:1038A800000EA8460025CFE7C5F1000E4FF000082E
:1038B800CAE7C5F100084FF0000EC5E77E4B1D684A
:1038C800C5F1000E7D4B1A6801327A4B83FB0283E7
:1038D800A3EBE27303EB43034FEA4308A2EB0803AD
:1038E800052B1AD8DFE803F00323060A0E14A846AE
:1038F8001D46A9E7F0464FF0000EA5E7F046AE4694
:103908000025A1E72B4675469E464FF000089BE729
:10391800A84675464FF0000E96E74FF00008C646D9
:10392800454691E74FF00008C64645468CE74FF0FC
:10393800000889E7C3F100089E461346194407EBBF
:103948000E0206EB080305F57A7540F2C676B54215
:1039580000F397800A2DB8BF0A25594E756304F500
:103968007A7440F2C675AC4200F38E800A2CB8BF58
:103978000A24534DAC6300F57A7040F2C674A04235
:1039880000F385800A28B8BF0A204D4CE06301F592
:103998007A7140F2C67081427CDC0A29B8BF0A21DC
:1039A8004848416302F57A7240F2C6718A4274DC73
:1039B8000A2AB8BF0A2243498A6303F57A7340F298
:1039C800C67293426CDC0A2BB8BF0A233D4AD36304
:1039D800BDE8F0819E465B424FF00008AEE798468E
:1039E8005B424FF0000EA9E7C3F1000E9846002392
:1039F800A4E7C3F1000E4FF000089FE7C3F10008E9
:103A08004FF0000E9AE7294B1B68C3F1000E284AB5
:103A180012680132DFF89CC08CFB028CACEBE27CB4
:103A28000CEB4C0C4FEA4C08A2EB080CBCF1050F50
:103A38001AD8DFE80CF00323060A0E1498466346EA
:103A48007CE7F0464FF0000E78E7F0469E460023EC
:103A580074E71A46734696464FF000086EE7984694
:103A680073464FF0000E69E74FF00008C64643461C
:103A780064E74FF00008C64643465FE74FF000088A
:103A88005CE740F2C67568E740F2C67471E740F239
:103A9800C6707AE740F2C67182E740F2C6728AE7DA
:103AA80040F2C67392E700BF100A0020180A0020EF
:103AB800080A0020ABAAAA2A140A0020040A002037
:103AC80000340140002C0140014B23F810107047CE
:103AD800BC0A0020F0B587B01A4F6422002138468E
:103AE80000F058FF18490A88B1F802C0888800B267
:103AF800CC8824B20D892DB24E8936B28B891BB27F
:103B0800C98909B20591049303960295019400901E
:103B18000FFA8CF312B20D49384600F043FF0C4BF4
:103B28005B686BB90A4C236823F0010323603846AD
:103B3800FCF776FB6060E760236843F001032360CD
:103B480007B0F0BD580A0020BC0A0020FC7D000820
:103B58001C0002400D4B1B681333262B14D810B5DC
:103B680000240B4B1C700B4B1C7005E00A4B1C709F
:103B78006420FDF7F5FC0134072CF7DD0022202135
:103B88000648FEF7E6FAFEE7704700BF240B002060
:103B9800F0090020FC090020EC0900200008014081
:103BA80030B597B002250C9501231093102311937B
:103BB8001395002414944FF4601315930CA8FEF782
:103BC800E9FA0F230793089509944FF480630A9341
:103BD8000B94294607A8FEF703FD01954FF44043CF
:103BE800039301A8FEF7DEFDFEF7B6FD084BA3FB25
:103BF80000308009FDF754FF0420FDF767FF2246D7
:103C080021464FF0FF30FDF70BFF17B030BD00BF66
:103C1800D34D6210000000002DE9F04F85B0FDF78C
:103C28007FFC8D4CA36943F00103A361A36903F0F2
:103C380001030093009B0320FDF7E0FE00221146DC
:103C48006FF00B00FDF7ECFE002211466FF00A0042
:103C5800FDF7E6FE002211466FF00900FDF7E0FED1
:103C6800002211466FF00400FDF7DAFE002211462B
:103C78006FF00300FDF7D4FE002211466FF001003B
:103C8800FDF7CEFE002211464FF0FF30FDF7C8FECB
:103C9800FFF786FF636923F00103636100F002FB0D
:103CA80000F002FC00F0F8FC00F08CFD00F0AEFA29
:103CB800012220216948FEF74CFA6948FDF740FDCA
:103CC8006848FDF73DFD082405E0674B1C7064203B
:103CD800FDF746FC013C002CF7DA0025624B1D700D
:103CE800012204216148FEF734FA614C257000F086
:103CF800FFF9032221465F48FFF768FA5E4B188AEE
:103D0800FDF730F882465D4B01221A702F46EFE02E
:103D1800574A9178507883EA0002914240F0F28045
:103D2800C3F3410803F00104FDF720F85449FDF7F7
:103D380071F8FDF735FA064604B14642B8F1000FAE
:103D480005D0B8F1010F0FD03E462C4600E02C46B6
:103D5800DFF81C814046FCF763FA642382B24146CF
:103D68004448FFF7C2F9DCE034463E46F0E7414CF0
:103D78002046FFF77FFA03223D492046FFF726FA3F
:103D88003E462C46CDE05046FCF7B6FB2EA3D3E9C1
:103D98000023FCF709FC80468946374D288AFCF742
:103DA800E1FFFCF7A9FB2AA3D3E90023FCF7FCFBFE
:103DB80002460B4640464946FCF740FAFCF7CCFE63
:103DC80082463049FCF71CFF2F49FDF723F82F499D
:103DD800FCF718FF074631460220FFF775FE21461B
:103DE8000320FFF771FEA9890420FFF76DFE28491B
:103DF800284B1868FDF70EF8FDF7D2F901460520A3
:103E0800FFF762FE5046FDF7CBF901460620FFF7A3
:103E18005BFE3846FDF7C4F901460720FFF754FE5C
:103E2800FFF758FEE4E0154B00221A7002210B48F8
:103E3800FEF788F90028F9D1FFF78CFEE5E0FFF7D7
:103E480089FE35E0AFF30080AE47E17A14AEEF3F6C
:103E58007B14AE47E17A843F00100240000801401D
:103E6800380C0020740B0020EC090020000C0140E5
:103E7800140B0020CC0A0020AC0C0020FC09002008
:103E8800AAF17A4000E0CE44083748BE33330F42E7
:103E98000000C842000000207F4B1B6813F1320F5E
:103EA80080F2D5807D4B05221A707D4B01221A7055
:103EB80084EAE473A3EBE473322B06DC86EAE67348
:103EC800A3EBE673322B40F3C880764B00221A60CE
:103ED800744B1A68744B9A4200F2C480734A136890
:103EE80001331360724A136801331360254637465D
:103EF8000520FDF735FB6F4B1B7803F0F802E82A25
:103F08003FF406AF694B1A686B4BA3FB0213DB083F
:103F180003EB830303EB83039A423FF428AF3E4647
:103F28002C46634B00221A60DFF8C0B1DBF80000B2
:103F3800FCF7D0FA54A3D3E90023FCF735FB8046FD
:103F480089465E4B1868FCF7C5FA51A3D3E90023EC
:103F5800FCF72AFB02460B4640464946FCF76EF939
:103F6800FCF7D2FDCBF80000DFF82CB1DBF800003D
:103F7800FCF7B0FA44A3D3E90023FCF715FB80460D
:103F880089464F4B1868FCF7A5FA41A3D3E90023EB
:103F9800FCF70AFB02460B4640464946FCF74EF939
:103FA800FCF7B2FDCBF8000005F13203A34212DDA5
:103FB800323DA5420FDA07F13203B3420BDD323F3F
:103FC800B74208DA3A4B1B68042B04D83D4B1E60F5
:103FD80063423D4A1360354B1A68374BA3FB021303
:103FE800DB0803EB830303EB83039A423FF4CBAE76
:103FF80002213648FEF7A6F838B1354B1B6823B9BD
:10400800344B1B68002B3FF40EAF334B1D6833490C
:104018002846FDF79DF828B11F4B1B681333262B44
:104028007FF60DAF2E492846FDF792F800283FF499
:1040380033AF2A492846FDF7A9F800283FF42CAFEA
:10404800164B05221A70164B06221A7030E7002309
:10405800124A1370124A13702AE7124A136801337E
:10406800136035E71F4A01AB07CA03C31A7001A8DA
:10407800FCF7D6F8642382B201A91B48FFF735F88C
:10408800FFF768FD2AE700BFCDCCCCCCCCCCEC3F09
:104098009A9999999999B93F240B0020EC09002025
:1040A800F0090020100B0020803801000C0B0020C4
:1040B8001C000020140B00201F85EB512C0B002046
:1040C800180B0020100A00200C0A002000080140EC
:1040D800180A0020140A002000000020CCCC064258
:1040E80000000C42287E0008CC0A00201C0B00208F
:1040F800F0B589B03E4EF36943F40033F361F369D8
:1041080003F400330093009B062205211020FDF7DD
:1041180087FC1020FDF7B8FC072205211120FDF7C8
:104128007FFC1120FDF7B0FC324D334B2B604FF470
:10413800E1336B600024AC60EC602C610C236B6194
:10414800AC612846FEF7A2FF736943F0010373616F
:10415800736903F001030193019BB36943F00403FE
:10416800B361B36903F004030293029BF36943F458
:104178000033F361F36903F400330393039B0123D2
:104188000693042304930223059303230793A6F5B8
:10419800843604A93046FDF7DDFE08230493059410
:1041A80004A93046FDF7D6FE144E154B33607460F3
:1041B800B4608027F760346174612023B361F461CF
:1041C8003046FDF7AFFC6E6375620E4E0E4B3360E2
:1041D80010237360B460F76034617461B461F46192
:1041E8003046FDF79FFC2E63756209B0F0BD00BF35
:1041F80000100240CC0A002000440040300B002090
:104208006C000240680C00208000024030B597B076
:104218001F4BDA6942F48022DA61DA6902F48022FB
:104228000092009A5A6942F001025A615B6903F0F0
:1042380001030193019B174D06954FF4E133079352
:104248000024089409940A9408230B930C940D9461
:1042580006A8FEF71BFF6B6943F080036B614FF400
:10426800806302930123049302230393032305939A
:1042780002A90948FDF76EFE084B1C60084A9A60BF
:104288005C6090221A601C3B70225A6017B030BDE7
:104298000010024000480040000C01401C00024091
:1042A800044800402DE9F04F89B07B4B9A6942F0F1
:1042B80004029A619A6902F004020192019A9A69C9
:1042C80042F008029A619A6902F008020292029A80
:1042D8009A6942F010029A619B6903F010030393F4
:1042E800039B002305930693022707974FF0200AA4
:1042F8000DEB0A0444F810AD21466848FDF72AFE84
:104308004023049321466548FDF724FE8025049543
:1043180021466248FDF71EFE4FF480630493214650
:104328005F48FDF717FE4FF40063049321465C488D
:10433800FDF710FE4FF48056049621465848FDF7C5
:1043480009FE049621465748FDF704FE04972146C6
:104358005448FDF7FFFD4FF00108CDF814804FF0E9
:104368000409CDF8109021464C48FDF7F3FD1026BE
:10437800049621464B48FDF7EDFDCDF810A02146E7
:104388004848FDF7E7FD03230593CDF81080214643
:104398004348FDF7DFFDCDF8108021464148FDF781
:1043A800D9FD4FF0080BCDF810B021463C48FDF779
:1043B800D1FD049721463A48FDF7CCFD04962146E5
:1043C8003748FDF7C7FDCDF810A021463448FDF762
:1043D800C1FDCDF8109021463148FDF7BBFDCDF861
:1043E80010B021462F48FDF7B5FDCDF810902146B5
:1043F8002C48FDF7AFFD0597402304932146284834
:10440800FDF7A8FD049521462548FDF7A3FD4FF4C7
:104418008079CDF8109021462148FDF79BFD049541
:1044280021462048FDF796FDCDF8108021461B480F
:10443800FDF790FD049721461848FDF78BFDCDF850
:10444800109021461748FDF785FD4FF4007304933B
:1044580021461448FDF77EFD4FF4806304932146FE
:104468001048FDF777FD4FF40053049321460B489D
:10447800FDF770FD4FF48043049321460748FDF78C
:1044880069FD4FF40043049321460448FDF762FD9B
:1044980009B0BDE8F08F00BF00100240000C0140D9
:1044A80000100140000801402DE9F04F99B0754B0C
:1044B8009A6942F400629A619A6902F40062019270
:1044C800019A9A6942F400529A619B6903F4005375
:1044D8000293029B6C4EDFF8B891C6F80090002456
:1044E80074604FF02008C6F808804FF4FA6BC6F8DD
:1044F8000CB034617461B4613046FEF749FB102397
:104508001693179416A93046FEF778FC60230F938C
:104518001094119408271297139414944FF400736D
:10452800159322460FA93046FEF784FB04220FA9F3
:104538003046FEF77FFB3A460FA93046FEF77AFB76
:104548004FF4006308934FF4806309930A94CDF8FD
:104558002C800C940D940E940DEB08013046FEF758
:1045680021FC4A4DDFF82CA1C5F800A06C60C5F805
:104578000880C5F80CB02C616C61AC612846FEF768
:1045880007FBCDF858808023179316A92846FEF715
:1045980035FC049418A9052341F8543D2846FEF734
:1045A8008AFA60230F931094119412971394149419
:1045B8004FF40073159322460FA92846FEF73AFBDD
:1045C80004220FA92846FEF735FB3A460FA92846CC
:1045D800FEF730FB4FF4006308934FF480630993B0
:1045E8000A94CDF82C800C940D940E940DEB0801D0
:1045F8002846FEF7D7FBDAF8443023F40043CAF81C
:104608004430D9F8443023F40043C9F844302146F3
:104618002846FEF78BFB04212846FEF787FB394620
:104628002846FEF783FB21462846FEF7A9FB04210E
:104638002846FEF7A5FB39462846FEF7A1FB21468A
:104648003046FEF773FB04213046FEF76FFB394610
:104658003046FEF76BFB21463046FEF791FB0421FE
:104668003046FEF78DFB39463046FEF789FB2B684E
:1046780001221A633268136843F00103136019B00A
:10468800BDE8F08F00100240F80B0020C00C00209D
:10469800002C0140003401402DE9F04186B0424E23
:1046A800B36943F40073B361B36903F4007300930F
:1046B800009B3E4C3E4B23604FF48073A360002563
:1046C800E56065614FF44023E36165604FF00508DC
:1046D800C4F810802046FDF7CFF8364A536843F4F3
:1046E8008023536006A94FF4C02341F8043D2046B7
:1046F800FDF758F9012304930E220292039302A9AD
:104708002046FCF741FF02950227039702A920469D
:10471800FCF73AFF04970B2702970323039302A998
:104728002046FCF731FF0C2302930423039302A9CC
:104738002046FCF729FF0723049310230293CDF8A2
:104748000C8002A92046FCF71FFF2268936843F4F7
:10475800000343F480739360936843F0010393600C
:10476800736943F001037361736903F001030193F3
:10477800019B114B1D60C3F80480104A9A60104ACF
:10478800DA6040F6A2221A601A6842F001021A6042
:104798002A4629463846FDF743F93846FDF774F9A5
:1047A80006B0BDE8F08100BF00100240380C0020C0
:1047B8000024014000000140080002404C24014050
:1047C800AC0C0020F0B585B0284B9A6942F48062A1
:1047D8009A619B6903F480630093009B244C254BEA
:1047E80023604FF48073A3600023E36063614FF498
:1047F8006022E2616360052626612046FDF73CF8E9
:10480800012303930F220192029301A92046FCF78A
:10481800BBFE0D2301930225029501A92046FCF752
:10482800B3FE03950A2301930327029701A92046A3
:10483800FCF7AAFE0195042302930DEB0301204621
:10484800FCF7A2FE072303930197029601A92046CD
:10485800FCF79AFE23689A6842F480729A609A6814
:1048680042F001029A6005B0F0BD00BF001002409E
:10487800740B0020002801407047FEE7FEE7FEE7C2
:10488800FEE770477047704708B5FCF75BFEFDF719
:104898002EF908BD08B50248FDF7E6F908BD00BFC6
:1048A800300B002008B50248FDF7DEF908BD00BF4F
:1048B800680C00200F4B1A6842F001021A60596810
:1048C8000D4A0A405A601A6822F0847222F4803233
:1048D8001A601A6822F480221A605A6822F4FE02CA
:1048E8005A604FF41F029A60044B4FF000629A60BE
:1048F800704700BF001002400000FFF800ED00E024
:10490800002103E00B4B5B58435004310A480B4B22
:1049180042189A42F6D30A4A02E0002342F8043BBE
:10492800084B9A42F9D3FFF7C5FF00F00FF8FFF7DD
:1049380073F97047D480000800000020D0090020D7
:10494800D0090020100D0020FEE7000070B50025FA
:104958000C4E0D4CA41BA410A54209D103F02EFA4D
:1049680000250A4E0A4CA41BA410A54205D170BD0F
:1049780056F8253098470135EEE756F82530984720
:104988000135F2E7C8800008C8800008C880000820
:10499800D080000803460244934200D1704703F8D0
:1049A800011BF9E70EB46FF0004100B59CB01DABD8
:1049B80002900690079104910848094953F8042B7E
:1049C8000591006802A9019300F00CF80022029BEF
:1049D8001A701CB05DF804EB03B070472400002087
:1049E8000802FFFF2DE9F04FD5B0894693461E46D1
:1049F800079002F06BF9036818461A93FBF710FC4E
:104A0800B9F80C300F90180618D5D9F81030ABB992
:104A18004021079802F06AF9C9F80000C9F81000A7
:104A280048B90C23079A13604FF0FF33109310987E
:104A380055B0BDE8F08F4023C9F814300023CDE904
:104A48002933CDE91333CDE91B33CDE917332BAC2B
:104A5800289408930D9316931D9310935D462B4647
:104A680013F8012B12B1252A40F0E480B5EB0B07AF
:104A78000ED02A9BC4E900B73B442A93299B0133F3
:104A8800072B299300F3D8800834109B3B441093DC
:104A98002B78002B01F0A4816B1C0E9300234FF0A0
:104AA800FF359A460A278DF8833011930E9B1B78A1
:104AB8000A930E9B01330E930A9B203B5A2B00F25C
:104AC800148601A252F823F0D34C0008F3560008CC
:104AD800F3560008E54C0008F3560008F3560008A2
:104AE800F3560008994C0008F3560008F3560008DE
:104AF800EB4C0008014D0008F3560008FB4C000879
:104B0800054D0008F3560008374D00083D4D0008D4
:104B18003D4D00083D4D00083D4D00083D4D000845
:104B28003D4D00083D4D00083D4D00083D4D000835
:104B3800F3560008F3560008F3560008F356000829
:104B4800F3560008F3560008F35600082B4E0008E9
:104B5800F3560008974D0008B94D00082B4E000881
:104B68002B4E00082B4E0008F3560008F356000899
:104B7800F3560008F35600085D4D0008F356000888
:104B8800F3560008F9520008F3560008F3560008D7
:104B9800F356000885530008F356000861550008CD
:104BA800F3560008F3560008594C0008F35600085D
:104BB800F3560008F3560008F3560008F3560008A9
:104BC800F3560008F3560008F35600082B4E000869
:104BD800F3560008974D0008BD4D00082B4E0008FD
:104BE8002B4E00082B4E0008634D0008BD4D0008F1
:104BF8008B4D0008F35600087D4D0008F356000859
:104C0800B3520008FD520008655300088B4D000898
:104C1800F356000885530008B54A00086555000892
:104C2800F3560008F3560008A3550008F356000889
:104C3800B54A00081D4612E728AA4946079802F017
:104C4800BAFD002840F057812BAC1EE71E462DE721
:104C5800AD4B1AF0200F1C9300F0A284073626F003
:104C6800070606F108030C93D6E900671AF0010F4E
:104C78000AD056EA070307D030238DF884300A9B00
:104C88004AF0020A8DF885302AF4806A02233FE34D
:104C9800079802F01BF8436818461D93FBF7C0FA03
:104CA8001690079802F012F883680D93169B002B54
:104CB8003FF4FCAE0D9B002B3FF4F8AE1B78002BA5
:104CC8003FF4F4AE4AF4806AF0E69DF88330002B96
:104CD8007FF4ECAE20238DF88330E7E64AF0010A32
:104CE800E4E63268331D002A1192AFDA1E465242BA
:104CF80011924AF0040AD9E62B23ECE70E9A0E9B90
:104D0800127801332A2A0A920FD135680E9345EAA0
:104D1800E5750436CAE607FB052513F8012B0A9248
:104D28000A9A303A092AF6D9C5E60025F8E74AF082
:104D3800800ABBE600220E9B11920A9A1199303A1A
:104D480007FB0122119213F8012B0A92303A092A23
:104D5800F3D9B0E64AF0080AA8E60E9B1B78682B40
:104D680001BF0E9B4AF4007A01330E9318BF4AF034
:104D7800400A9BE60E9B1B786C2B05D10E9B0133DA
:104D88000E934AF0200A91E64AF0100A8EE60020B7
:104D9800331D0C9333688DF883008DF8EC30804612
:104DA8000125129007460B9006460DF1EC0BFEE22A
:104DB8004AF0100A1AF0200F20D0073626F007060E
:104DC80006F108030C93D6E90067002E77F100037B
:104DD80005DA2D23764267EB47078DF883306B1C85
:104DE80040F0F183002F08BF0A2E80F0238430366C
:104DF8000DF5A87B0BF8016D00F008BC331D1AF007
:104E0800100F0C9302D03668F717DEE71AF0400F40
:104E1800366801D036B2F7E71AF4007F18BF76B2C9
:104E2800F2E7073626F0070606F108030C93336805
:104E38004FF0FF3214937368149F23F000461393C6
:104E48003846324B3146FBF749FE00BB4FF0FF3284
:104E58002E4B38463146FBF723FEC0B9DDE9172350
:104E6800DDE91310FBF712FE10B12D238DF8833006
:104E7800274A284B0A994FF000084729CCBF934688
:104E88009B4603252AF0800ACDF84880C4E3DDE973
:104E98001332DDE91310FBF721FE804640B1139B66
:104EA8001D4A002BBCBF2D238DF883301B4BE1E737
:104EB8000A9B23F02003412B0B9331D130238DF82B
:104EC80084300A9B4AF0020A612B14BF58237823C6
:104ED800632D8DF8853040F31181691C079801F026
:104EE80005FF8346002840F00C81B9F80C3043F0E8
:104EF8004003A9F80C30B9F80C3013F0400F109BA0
:104F080018BF4FF0FF3391E5717E0008FFFFEF7F78
:104F1800547E0008507E00085C7E0008587E000819
:104F2800691C00F0F0800B9B472B02D1002D00F08C
:104F3800EC804AF480731593139B1E1E149B0893F0
:104F4800B7BF3346002303F100462D2319930B9B6B
:104F5800412B40F0EB8022AA0898314602F0D4FB9E
:104F680000224FF07F53FBF71FFBDDE91723CDE944
:104F78000801FBF781FD08B101232293AC4FAD4B2B
:104F88000A9A5E46612A08BF1F4612976F1E0022C2
:104F9800DDE90801A84BFBF707FBCDE90801FBF7A2
:104FA800B3FD1E90FBF796FA02460B46DDE90801B1
:104FB800FBF742F91E9A129BCDE908019B5C7A1C0B
:104FC80006F8013B1F9706D0DDE91723013FFBF7E1
:104FD80053FD0028DBD00022DDE90801974BFBF7E1
:104FE80073FD60B9DDE908010022944BFBF744FD2D
:104FF800002800F096801E9BDB0740F1928030204D
:10500800129B2696D97B269A531E269312F8013CAA
:105018008B427DD0392B0BBF129B01339B7ADBB2BD
:1050280002F8013C3346A3EB0B0308930B9B229E2B
:10503800472B40F0C780F71C02DBB54280F2ED80B9
:105048000A9B023B0A930A999DF8282021F0200127
:10505800412908BF0F3206F1FF3306BFD2B2012142
:105068000021002B8DF89020B4BF2D222B222293F3
:10507800B8BFC6F10103092B8DF8912040F3B98020
:105088000A250DF19F0293FBF5F005FB1033092863
:1050980003F1300302F8013C02F1FF31034600F34B
:1050A800A180303301F8013C023A0DF192030DF171
:1050B8009F0082421946C0F09780089A24ABCB1A09
:1050C800012A1B9303EB020502DC1AF0010F01D041
:1050D8000F9B1D4400273E462AF4806343F48073E7
:1050E80015930B97199B002B00F00B832D238DF83C
:1050F80083300023DDF854A0129358E10DF1EC0B36
:1051080017E7804615E7062513E7A846012510E7A7
:1051180002F8010C77E703F8011BF21A002AFADA01
:1051280081E71F9A334630211644F6E70B9B462B3E
:1051380004D0452B40D16F1C022301E02F460323E6
:1051480026AA049223AA039222AACDE90172009307
:10515800089A3346079800F0F3FE0B9B8346472BCB
:1051680002D11AF0010F2BD00BEB070312930B9B04
:10517800462B11D19BF80030302B09D1DDE91723DC
:1051880008983146FBF778FC10B9C7F10107229758
:10519800129A229B1A441292DDE917230898314685
:1051A800FBF76AFC50B93022269B1299994207D91D
:1051B800591C26911A70F7E72F46BDE7129B2693D4
:1051C800269B30E70B9B462B7FF43DAF002E1DDD61
:1051D80015B91AF0010F3DD00F9BF3181D44662333
:1051E8000A933CE00A464EE712F8011B03F8011B3C
:1051F8005FE741B930228DF892200DF193023033E8
:10520800511C137059E70DF19202F8E715B91AF01D
:10521800010F21D00F9B0133E0E7089BB3420FDC5D
:105228001AF0010F2ED00F9BF5186723D8E700BF9F
:10523800717E0008607E0008000030400000E03FFA
:10524800089B0F9A002E03EB0205EEDCC6F1010362
:105258001D44EAE73546C2E7662301250A931AF496
:1052680080630B931FD00027002E0B977FF73AAF70
:105278000D9B1B78FF2B07D10B9B169A3B4402FB17
:1052880003552FE73546D0E7B342F5DAF61A0D9BFA
:105298005B7833B10B9B01330B930D9B01330D935B
:1052A800E6E70137E4E70B9F1CE7324652F8043B78
:1052B8001AF0200F0C9209D0109A1046D117C3E9A2
:1052C80000010C9EDDF838B0FFF7C8BB1AF0100FCC
:1052D80002D0109A1A60F4E71AF0400F02D0109A20
:1052E8001A80EEE71AF4007FF3D0109A1A70E8E7F4
:1052F8004AF0100A1AF0200F1ED0073626F00706CB
:1053080006F108030C93D6E9006700232AF4806AA3
:105318000022691C8DF8832000F05881524656EA15
:1053280007012AF0800A40F05181002D00F0D38156
:10533800012B40F04E815AE5331D1AF0100F0C93E3
:1053480001D0366803E01AF0400F02D036880027F3
:10535800DBE71AF4007FF4D03678F8E7331D0C93B6
:1053680047F630037822ADF88430AF4B36681C938B
:1053780000274AF0020A02230A92C9E7331DD6F829
:1053880000B00026681C0C938DF8836000F0DE8066
:105398002A463146584601F0DFFE804600283FF491
:1053A80073ADB0463746A0EB0B0512960B96129BD1
:1053B800AB42B8BF2B4615939DF8833013B1159BAC
:1053C800013315931AF002031E931EBF159B023377
:1053D80015931AF084031F9321D1119B159A9B1AD8
:1053E800002B19931BDDDDE92923199801321028B8
:1053F8008E4804F10801206000F387811998072A74
:1054080003446060CDE9292340F3948128AA4946E2
:10541800079802F0D0F9002840F0C0842BAC9DF822
:10542800833073B10DF183032360012363602A9BEA
:1054380001332A93299B0133072B299300F37C819D
:1054480008341E9B6BB121AB2360022363602A9B47
:1054580002332A93299B0133072B299300F3768182
:1054680008341F9B802B21D1119B159A9B1A002B66
:1054780019931BDDDDE929231998013210286C489E
:1054880004F10801206000F36B811998072A03448E
:105498006060CDE9292340F3788128AA4946079816
:1054A80002F089F9002840F079842BAC129B5B1B31
:1054B800002B12931BDDDDE92923129801321028F5
:1054C8005B4804F10801206000F361811298072A03
:1054D80003446060CDE9292340F36E8128AA494638
:1054E800079802F068F9002840F058842BAC2A9BF2
:1054F8001AF4807F129340F06181C4E900B51D441D
:105508002A95299B0133072B299300F39D810834A1
:105518001AF0040F40F02484DDE9103215998A420C
:10552800ACBF9B185B1810932A9B3BB128AA49462D
:10553800079802F040F9002840F0308400232993AE
:10554800B8F1000F40F046842BACBAE65846FAF79B
:1055580067FEB046054697E44AF0100A1AF0200F95
:1055680009D0073626F0070606F108030C93D6E99A
:1055780000670123CCE6331D1AF0100F0C9301D0FD
:10558800366803E01AF0400F02D036880027F0E7AB
:105598001AF4007FF4D03678F8E7234BFFF759BBAD
:1055A800331D1AF0100F0C9301D0366803E01AF07F
:1055B800400F03D036880027FFF758BB1AF4007F46
:1055C800F3D03678F7E752460123A8E6012B3FF4DB
:1055D80009AC022B6DD054ABF10841EA4771F808C9
:1055E80006F0070207460E46303256EA070103F175
:1055F800FF3B03F8012C14D11AF0010F06D0302A12
:1056080004D030220BF8012CA3F1020B4FF0000854
:1056180054AB1295A3EB0B054746CDF82C804646B4
:10562800C5E65B46D8E700BF607E0008847E0008B8
:10563800947E0008002308930AF480630DF5A87887
:105648000B930A22002330463946FBF7CFFD089B0F
:105658003032013308930B9B08F1FF3B08F8012C0B
:10566800D3B10D9B089A1B789A4215D1FF2A13D003
:10567800002F08BF0A2E0FD3169B1D99ABEB030B07
:105688001A46584602F082F80D9B5B781BB10D9BB9
:1056980001330D93002308930023304639460A222C
:1056A800FBF7A4FD06460F4656EA0703AED0D846D8
:1056B800C7E70DF5A87B1C9A06F00F03D35C3A09DF
:1056C8000BF8013D330943EA07731E46174656EAAD
:1056D8000703F0D19AE70DF5A87B002B96D1D207E6
:1056E80044BF30230BF8013D90E70A9B002B00F0E4
:1056F800778300208DF8EC308DF883000C96FFF747
:105708004EBBDDF854A0199BF6E41020072A034489
:105718006060CDE9292308DD28AA4946079802F0E8
:105728004AF8002840F03A832BA9199B0C46103BF5
:10573800199358E60C4672E628AA4946079802F0DB
:105748003AF8002840F02A832BAC7AE628AA494682
:10575800079802F030F8002840F020832BAC80E650
:105768001020072A03446060CDE9292308DD28AA10
:105778004946079802F01FF8002840F00F832BA92C
:10578800199B0C46103B199374E60C468EE61020C4
:10579800072A03446060CDE9292308DD28AA494681
:1057A800079802F008F8002840F0F8822BA9129B0D
:1057B8000C46103B12937EE60C4698E60A9B652B36
:1057C80040F33482DDE91723DDE91310FBF754F9C0
:1057D800002869D06E4B129D236001231D4463602D
:1057E800299B2A950133072B299337DC0834229B00
:1057F800089A934203DB1AF0010F3FF489AE1A9B13
:105808000F9A23600F9B63602A9B13442A93299B5A
:105818000133072B29932BDC0834089B5D1E002DD0
:105828007FF776AE10275B4E102DDDE9293204F1A3
:10583800080103F10103266024DC6560072B154489
:10584800CDE9293540F3898228AA4946079801F00D
:10585800B2FF002840F0A2822BAC59E628AA49469C
:10586800079801F0A8FF002840F098822BACBEE70B
:1058780028AA4946079801F09EFF002840F08E822A
:105888002BACCAE71032072B6760CDE9293208DD57
:1058980028AA4946079801F08EFF002840F07E822A
:1058A8002BA9103D0C46BFE7229B002B74DC384B1C
:1058B800129D236001231D446360299B2A950133AF
:1058C800072B29933EDC0834229B2BB9089B1BB974
:1058D8001AF0010F3FF41CAE1A9B0F9A23600F9B1E
:1058E80063602A9B13442A93299B0133072B29932E
:1058F80032DC0834229D002D1BDA23461027254E62
:105908006D42102DDDE9292104F1080402F101029C
:105918001E602BDC5D60072A0D44CDE9292508DDD2
:1059280028AA4946079801F046FF002840F0368229
:105938002BAC089B089A63602A9BC4F800B01344F8
:105948002A93DEE528AA4946079801F034FF002883
:1059580040F024822BACB7E728AA4946079801F003
:105968002AFF002840F01A822BACC3E71031072A1F
:105978005F60CDE9292108DD28AA4946079801F08A
:105988001AFF002840F00A822BAC103D2346B8E7E6
:10599800827E0008947E0008089BB342A8BF334665
:1059A800002B1D460BDDC4E900B3129B2B442A9340
:1059B800299B0133072B299300F386800834002D97
:1059C800B4BF3546751B002D19DDDDE9293296482F
:1059D800102D03F1010304F1080120607EDC6560ED
:1059E800072B1544CDE9293540F38B8028AA494671
:1059F800079801F0E0FE002840F0D0812BAC1AF4A3
:105A0800806F5E4409D00B9B002B7CD1002F7CD18A
:105A1800089B5B449E4228BF1E46229B089A9342DD
:105A280002DB1AF0010F0ED01A9B0F9A23600F9B0E
:105A380063602A9B13442A93299B0133072B2993DC
:105A480000F3DD800834089B089A0BEB0305AB1BB9
:105A5800229D551B9D42A8BF1D46002D0BDD2A9B8C
:105A6800C4E900652B442A93299B0133072B29930A
:105A780000F3CF800834229B089A002DA2EB030381
:105A8800B4BF1D465D1B002D7FF742AD1027664E43
:105A9800102DDDE9293204F1080103F10103266024
:105AA8007FF7CBAE1032072B6760CDE9293208DDCE
:105AB80028AA4946079801F07EFE002840F06E812A
:105AC8002BA9103D0C46E3E728AA4946079801F0A0
