:020000040800F2
:1000000000C00020893E00083D3E0008413E000837
:10001000453E0008493E00084D3E00080000000033
:10002000000000000000000000000000513E000839
:10003000553E000800000000593E00085D3E0008E3
:10004000D13E0008D13E0008D13E0008D13E000854
:10005000D13E0008D13E0008D13E0008D13E000844
:10006000D13E0008D13E0008D13E000831370008DB
:10007000D13E0008D13E0008D13E0008D13E000824
:10008000693E0008793E0008D13E0008D13E0008D4
:10009000D13E0008D13E0008D13E0008D13E000804
:1000A000D13E0008D13E0008D13E0008D13E0008F4
:1000B000D13E0008D13E0008D13E0008D13E0008E4
:1000C000D13E0008D13E0008D13E0008D13E0008D4
:1000D000D13E0008D13E0008D13E0008D13E0008C4
:1000E000D13E0008D13E0008D13E0008D13E0008B4
:1000F000D13E0008D13E0008D13E0008D13E0008A4
:10010000D13E0008D13E0008D13E0008D13E000893
:10011000D13E0008D13E0008D13E0008D13E000883
:10012000D13E0008D13E0008D13E0008D13E000873
:1001300000000000000000000000000000000000BF
:1001400000000000000000000000000000000000AF
:10015000000000000000000000000000000000009F
:10016000000000000000000000000000000000008F
:10017000000000000000000000000000000000007F
:10018000000000000000000000000000000000006F
:10019000000000000000000000000000000000005F
:1001A000000000000000000000000000000000004F
:1001B000000000000000000000000000000000003F
:1001C000000000000000000000000000000000002F
:1001D000000000000000000000000000000000001F
:0401E0005FF8E0F1F3
:1001E80010B5054C237833B9044B13B10448AFF369
:1001F80000800123237010BD2400002000000000AF
:10020800203F0008084B10B51BB108490848AFF358
:1002180000800848036803B910BD074B002BFBD0CA
:10022800BDE81040184700BF00000000280000206B
:10023800203F0008240000200000000081F0004159
:1002480002E000BF83F0004330B54FEA41044FEAB3
:10025800430594EA050F08BF90EA020F1FBF54EA4E
:10026800000C55EA020C7FEA645C7FEA655C00F0EA
:10027800E2804FEA5454D4EB5555B8BF6D420CDDBB
:100288002C4480EA020281EA030382EA000083EA3E
:10029800010180EA020281EA0303362D88BF30BDDE
:1002A80011F0004F4FEA01314FF4801C4CEA113134
:1002B80002D0404261EB410113F0004F4FEA033393
:1002C8004CEA133302D0524263EB430394EA050F1E
:1002D80000F0A780A4F10104D5F1200E0DDB02FA8D
:1002E8000EFC22FA05F2801841F1000103FA0EF221
:1002F800801843FA05F359410EE0A5F120050EF1E7
:10030800200E012A03FA0EFC28BF4CF0020C43FA17
:1003180005F3C01851EBE37101F0004507D54FF024
:10032800000EDCF1000C7EEB00006EEB0101B1F574
:10033800801F1BD3B1F5001F0CD349085FEA3000BA
:100348004FEA3C0C04F101044FEA445212F5800FC5
:1003580080F09A80BCF1004F08BF5FEA500C50F162
:10036800000041EB045141EA050130BD5FEA4C0C45
:10037800404141EB010111F4801FA4F10104E9D1CE
:1003880091F0000F04BF01460020B1FA81F308BFC5
:100398002033A3F10B03B3F120020CDA0C3208DD91
:1003A80002F1140CC2F10C0201FA0CF021FA02F16C
:1003B8000CE002F11402D8BFC2F1200C01FA02F1DC
:1003C80020FA0CFCDCBF41EA0C019040E41AA2BF01
:1003D80001EB0451294330BD6FEA04041F3C1CDAC9
:1003E8000C340EDC04F11404C4F1200220FA04F0E9
:1003F80001FA02F340EA030021FA04F345EA030193
:1004080030BDC4F10C04C4F1200220FA02F001FA54
:1004180004F340EA0300294630BD21FA04F02946D6
:1004280030BD94F0000F83F4801306BF81F480116F
:100438000134013D4EE77FEA645C18BF7FEA655CE2
:1004480029D094EA050F08BF90EA020F05D054EAB4
:10045800000C04BF1946104630BD91EA030F1EBFB9
:100468000021002030BD5FEA545C05D140004941BD
:1004780028BF41F0004130BD14F580043CBF01F5B0
:10048800801130BD01F0004545F0FE4141F4700196
:100498004FF0000030BD7FEA645C1ABF1946104671
:1004A8007FEA655C1CBF0B46024650EA013406BF72
:1004B80052EA033591EA030F41F4002130BD00BF31
:1004C80090F0000F04BF0021704730B54FF48064EE
:1004D80004F132044FF000054FF0000150E700BF6F
:1004E80090F0000F04BF0021704730B54FF48064CE
:1004F80004F1320410F0004548BF40424FF00001BB
:100508003EE700BF42004FEAE2014FEA31014FEAFD
:1005180002701FBF12F07F4393F07F4F81F060514C
:10052800704792F0000F14BF93F07F4F704730B5BB
:100538004FF4607401F0004521F0004120E700BF4E
:1005480050EA010208BF704730B54FF000050AE0D5
:1005580050EA010208BF704730B511F0004502D5D6
:10056800404261EB41014FF4806404F132045FEAD8
:10057800915C3FF4DCAE4FF003025FEADC0C18BF7D
:1005880003325FEADC0C18BF033202EBDC02C2F173
:10059800200300FA03FC20FA02F001FA03FE40EA05
:1005A8000E0021FA02F11444C1E600BF70B54FF005
:1005B800FF0C4CF4E06C1CEA11541DBF1CEA1355E7
:1005C80094EA0C0F95EA0C0F00F0DEF82C4481EA4F
:1005D800030621EA4C5123EA4C5350EA013518BF6F
:1005E80052EA033541F4801143F4801338D0A0FB5C
:1005F80002CE4FF00005E1FB02E506F00042E0FB09
:1006080003E54FF00006E1FB03569CF0000F18BF0E
:100618004EF0010EA4F1FF04B6F5007F64F54074B6
:1006280004D25FEA4E0E6D4146EB060642EAC62149
:1006380041EA55514FEAC52040EA5E504FEACE2EB6
:10064800B4F1FD0C88BFBCF5E06F1ED8BEF1004FB9
:1006580008BF5FEA500E50F1000041EB045170BD35
:1006680006F0004646EA010140EA020081EA030179
:10067800B4EB5C04C2BFD4EB0C0541EA045170BD75
:1006880041F480114FF0000E013C00F3AB8014F1EF
:10069800360FDEBF002001F0004170BDC4F1000438
:1006A800203C35DA0C341BDC04F11404C4F12005B9
:1006B80000FA05F320FA04F001FA05F240EA020014
:1006C80001F0004221F0004110EBD37021FA04F64A
:1006D80042EB06015EEA430E08BF20EAD37070BD04
:1006E800C4F10C04C4F1200500FA04F320FA05F063
:1006F80001FA04F240EA020001F0004110EBD37065
:1007080041F100015EEA430E08BF20EAD37070BDD4
:10071800C4F1200500FA05F24EEA020E20FA04F3AD
:1007280001FA05F243EA020321FA04F001F000415C
:1007380021FA04F220EA020000EBD3705EEA430ECD
:1007480008BF20EAD37070BD94F0000F0FD101F0FC
:100758000046400041EB010111F4801F08BF013C35
:10076800F7D041EA060195F0000F18BF704703F073
:100778000046520043EB030313F4801F08BF013DFA
:10078800F7D043EA0603704794EA0C0F0CEA1355B6
:1007980018BF95EA0C0F0CD050EA410618BF52EA70
:1007A8004306D1D181EA030101F000414FF0000076
:1007B80070BD50EA410606BF1046194652EA430684
:1007C80019D094EA0C0F02D150EA013613D195EAF8
:1007D8000C0F05D152EA03361CBF104619460AD140
:1007E80081EA030101F0004141F0FE4141F470014A
:1007F8004FF0000070BD41F0FE4141F4780170BD3A
:1008080070B54FF0FF0C4CF4E06C1CEA11541DBF9E
:100818001CEA135594EA0C0F95EA0C0F00F0A7F8A0
:10082800A4EB050481EA030E52EA03354FEA0131CD
:1008380000F088804FEA03334FF0805545EA1313E0
:1008480043EA12634FEA022245EA111545EA1065A8
:100858004FEA00260EF000419D4208BF964244F13F
:10086800FD0404F5407402D25B084FEA3202B61A5E
:1008780065EB03055B084FEA32024FF480104FF432
:10088800002CB6EB020E75EB030E22BFB61A7546A6
:1008980040EA0C005B084FEA3202B6EB020E75EB39
:1008A800030E22BFB61A754640EA5C005B084FEAA1
:1008B8003202B6EB020E75EB030E22BFB61A75466E
:1008C80040EA9C005B084FEA3202B6EB020E75EB79
:1008D800030E22BFB61A754640EADC0055EA060E3A
:1008E80018D04FEA051545EA16754FEA06164FEA7D
:1008F800C30343EA52734FEAC2025FEA1C1CC0D129
:1009080011F4801F0BD141EA00014FF000004FF0B5
:10091800004CB6E711F4801F04BF01430020B4F176
:10092800FD0C88BFBCF5E06F3FF6AFAEB5EB030C2E
:1009380004BFB6EB020C5FEA500C50F1000041EB2B
:10094800045170BD0EF0004E4EEA113114EB5C04F8
:10095800C2BFD4EB0C0541EA045170BD41F48011CB
:100968004FF0000E013C90E645EA060E8DE60CEAD3
:10097800135594EA0C0F08BF95EA0C0F3FF43BAFF0
:1009880094EA0C0F0AD150EA01347FF434AF95EAA7
:100998000C0F7FF425AF104619462CE795EA0C0F8B
:1009A80006D152EA03353FF4FDAE1046194622E758
:1009B80050EA410618BF52EA43067FF4C5AE50EA32
:1009C80041047FF40DAF52EA43057FF4EBAE12E722
:1009D8004FF0FF3C06E000BF4FF0010C02E000BF03
:1009E8004FF0010C4DF804CD4FEA410C7FEA6C5CE6
:1009F8004FEA430C18BF7FEA6C5C1BD001B050EA89
:100A0800410C0CBF52EA430C91EA030F02BF90EA73
:100A1800020F0020704710F1000F91EA030F58BF32
:100A2800994208BF90422CBFD8176FEAE37040F094
:100A3800010070474FEA410C7FEA6C5C02D150EA32
:100A4800013C07D14FEA430C7FEA6C5CD6D152EAED
:100A5800033CD3D05DF8040B704700BF84461046B2
:100A680062468C461946634600E000BF01B5FFF7B1
:100A7800B7FF002848BF10F1000F01BD4DF808ED81
:100A8800FFF7F4FF0CBF012000205DF808FB00BF52
:100A98004DF808EDFFF7EAFF34BF012000205DF8AC
:100AA80008FB00BF4DF808EDFFF7E0FF94BF0120F9
:100AB80000205DF808FB00BF4DF808EDFFF7CEFFFA
:100AC80094BF012000205DF808FB00BF4DF808ED39
:100AD800FFF7C4FF34BF012000205DF808FB00BF0A
:100AE8004FEA4102B2F1E04324BFB3F5001CDCF148
:100AF800FE5C0DD901F0004C4FEAC0024CEA507080
:100B0800B2F1004F40EB830008BF20F001007047AE
:100B180011F0804F21D113F13872BCBF01F00040B1
:100B2800704741F480114FEA5252C2F11802C2F1E3
:100B3800200C10FA0CF320FA02F018BF40F0010064
:100B48004FEAC1234FEAD32303FA0CFC40EA0C0016
:100B580023FA02F34FEA4303CCE77FEA625307D153
:100B680050EA01331EBF4FF0FE4040F4400070478A
:100B780001F0004040F0FE4040F40000704700BF24
:100B880080F0004002E000BF81F0004142001FBF3A
:100B98005FEA410392EA030F7FEA226C7FEA236C43
:100BA8006AD04FEA1262D2EB1363C1BFD218414038
:100BB80048404140B8BF5B42192B88BF704710F0CE
:100BC800004F40F4000020F07F4018BF404211F071
:100BD800004F41F4000121F07F4118BF494292EAD9
:100BE800030F3FD0A2F1010241FA03FC10EB0C0005
:100BF800C3F1200301FA03F100F0004302D5494292
:100C080060EB4000B0F5000F13D3B0F1807F06D33E
:100C180040084FEA310102F10102FE2A51D2B1F136
:100C2800004F40EBC25008BF20F0010040EA03002B
:100C38007047490040EB000010F4000FA2F10102D8
:100C4800EDD1B0FA80FCACF1080CB2EB0C0200FA62
:100C58000CF0AABF00EBC25052421843BCBFD040B0
:100C68001843704792F0000F81F4000106BF80F42A
:100C780000000132013BB5E74FEA41037FEA226CED
:100C880018BF7FEA236C21D092EA030F04D092F0B8
:100C9800000F08BF0846704790EA010F1CBF0020EC
:100CA800704712F07F4F04D1400028BF40F0004049
:100CB800704712F100723CBF00F50000704700F069
:100CC800004343F0FE4040F4000070477FEA226290
:100CD80016BF08467FEA23630146420206BF5FEA61
:100CE800412390EA010F40F4800070474FF0000361
:100CF80004E000BF10F0004348BF40425FEA000C28
:100D080008BF704743F0964301464FF000001CE0CF
:100D180050EA010208BF70474FF000030AE000BF25
:100D280050EA010208BF704711F0004302D5404263
:100D380061EB41015FEA010C02BF844601460020D5
:100D480043F0B64308BFA3F18053A3F50003BCFAF0
:100D58008CF2083AA3EBC25310DB01FA02FC63449D
:100D680000FA02FCC2F12002BCF1004F20FA02F2A4
:100D780043EB020008BF20F00100704702F1200297
:100D880001FA02FCC2F1200250EA4C0021FA02F2F8
:100D980043EB020008BF20EADC7070474FF0FF0CFD
:100DA8001CEAD0521EBF1CEAD15392EA0C0F93EAF8
:100DB8000C0F6FD01A4480EA010C400218BF5FEA9A
:100DC80041211ED04FF0006343EA501043EA51110D
:100DD800A0FB01310CF00040B1F5000F3EBF490007
:100DE80041EAD3715B0040EA010062F17F02FD2A0B
:100DF8001DD8B3F1004F40EBC25008BF20F00100EE
:100E0800704790F0000F0CF0004C08BF49024CEA04
:100E1800502040EA51207F3AC2BFD2F1FF0340EA96
:100E2800C250704740F400004FF00003013A5DDC07
:100E380012F1190FDCBF00F000407047C2F1000248
:100E4800410021FA02F1C2F1200200FA02FC5FEA35
:100E5800310040F1000053EA4C0308BF20EADC707F
:100E6800704792F0000F00F0004C02BF400010F4F1
:100E7800000F013AF9D040EA0C0093F0000F01F09E
:100E8800004C02BF490011F4000F013BF9D041EAC0
:100E98000C018FE70CEAD15392EA0C0F18BF93EAC2
:100EA8000C0F0AD030F0004C18BF31F0004CD8D1EC
:100EB80080EA010000F00040704790F0000F17BF73
:100EC80090F0004F084691F0000F91F0004F14D0B9
:100ED80092EA0C0F01D142020FD193EA0C0F03D111
:100EE8004B0218BF084608D180EA010000F0004014
:100EF80040F0FE4040F40000704740F0FE4040F4EF
:100F0800400070474FF0FF0C1CEAD0521EBF1CEA8D
:100F1800D15392EA0C0F93EA0C0F69D0A2EB0302AB
:100F280080EA010C49024FEA402037D04FF0805345
:100F380043EA111143EA10130CF000408B4238BF0A
:100F48005B0042F17D024FF4000C8B4224BF5B1A18
:100F580040EA0C00B3EB510F24BFA3EB510340EA66
:100F68005C00B3EB910F24BFA3EB910340EA9C0014
:100F7800B3EBD10F24BFA3EBD10340EADC001B0184
:100F880018BF5FEA1C1CE0D1FD2A3FF650AF8B4228
:100F980040EBC25008BF20F0010070470CF0004C35
:100FA8004CEA50207F32C2BFD2F1FF0340EAC25060
:100FB800704740F400004FF00003013A37E792F021
:100FC800000F00F0004C02BF400010F4000F013A7F
:100FD800F9D040EA0C0093F0000F01F0004C02BF7A
:100FE800490011F4000F013BF9D041EA0C0195E7E3
:100FF8000CEAD15392EA0C0F08D142027FF47DAF7C
:1010080093EA0C0F7FF470AF084676E793EA0C0F6B
:1010180004D14B023FF44CAF08466EE730F0004C69
:1010280018BF31F0004CCAD130F000427FF45CAFF9
:1010380031F000437FF43CAF5FE700BF82B0084B5C
:101048001B68084AA2FB03235B0A00FB03F001901C
:1010580000BF019B5A1E0192002BF9D102B07047C4
:1010680000000020D34D621070B582B004460368BA
:1010780013F0010F6BD0A84B5B6803F00C03042B33
:101088000AD0A54B5B6803F00C03082B0DD1A24BCB
:101098005B6813F4803F08D09F4B1B6813F4003F34
:1010A80055D06368002B52D1B8E16368B3F5803F2F
:1010B80005D1994A136843F48033136026E063B975
:1010C80003F1804303F504331A6822F480321A606E
:1010D8001A6822F480221A6018E0B3F5A02F0CD108
:1010E80003F18043A3F53C331A6842F480221A6066
:1010F8001A6842F480321A6008E0874B1A6822F4B2
:1011080080321A601A6822F480221A6063687BB100
:1011180001F00EF8054605E001F00AF8401B6428C6
:1011280000F27E817C4B1B6813F4003FF4D00EE084
:1011380000F0FEFF054605E000F0FAFF401B6428BA
:1011480000F27081744B1B6813F4003FF4D12368DC
:1011580013F0020F50D0704B5B6813F00C0F0AD0DD
:101168006D4B5B6803F00C03082B16D16A4B5B6868
:1011780013F4803F11D1684B1B6813F0020F03D0A2
:101188002369012B40F05081634A136823F0F80368
:10119800616943EAC10313602EE02369D3B10122D8
:1011A8005E4B1A6000F0C4FF054605E000F0C0FF82
:1011B800401B022800F23A81574B1B6813F0020FBC
:1011C800F4D0554A136823F0F803616943EAC10370
:1011D800136011E00022514B1A6000F0A9FF054688
:1011E80005E000F0A5FF401B022800F221814A4BD0
:1011F8001B6813F0020FF4D1236813F0080F29D0ED
:10120800A369ABB10122464B1A6000F091FF054675
:1012180005E000F08DFF401B022800F20B813E4BD9
:101228005B6A13F0020FF4D00120FFF707FF11E00B
:1012380000223B4B1A6000F07BFF054605E000F0FA
:1012480077FF401B022800F2F780334B5B6A13F0EC
:10125800020FF4D1236813F0040F00F089802E4B9D
:10126800DB6913F0805F0BD12B4BDA6942F08052B7
:10127800DA61DB6903F080530193019B012500E0EB
:101288000025284B1B6813F4807F13D1254A136867
:1012980043F48073136000F04BFF064605E000F04E
:1012A80047FF801B642800F2C9801E4B1B6813F49B
:1012B800807FF4D0E368012B05D1174A136A43F005
:1012C8000103136222E063B903F1804303F5043399
:1012D8001A6A22F001021A621A6A22F004021A62D9
:1012E80014E0052B09D10C4B1A6A42F004021A6269
:1012F8001A6A42F001021A6208E0074B1A6A22F0E1
:1013080001021A621A6A22F004021A62E368CBB177
:1013180000F00EFF06460FE00010024000004242B7
:10132800800442420070004000F002FF801B41F23E
:101338008833984200F28480494B1B6A13F0020FED
:10134800F2D00FE000F0F4FE064606E000F0F0FEF2
:10135800801B41F28833984274D8414B1B6A13F0C2
:10136800020FF3D125B13E4AD36923F08053D361EC
:10137800E369002B68D03A4A526802F00C02082A46
:1013880064D0022B37D10022364B1A6000F0D0FE11
:10139800054604E000F0CCFE401B022858D8304B2C
:1013A8001B6813F0007FF5D1236AB3F5803F06D19F
:1013B8002B494B6823F40032A36813434B60284839
:1013C800436823F47411236A626A13430B4343602E
:1013D8000122244B1A6000F0ABFE044604E000F042
:1013E800A7FE001B022835D81D4B1B6813F0007F91
:1013F800F5D0002031E000221A4B1A6000F098FE68
:10140800044604E000F094FE001B022824D8144B84
:101418001B6813F0007FF5D100201EE001201CE0BE
:1014280003201AE0032018E0012016E0032014E04E
:10143800032012E0032010E003200EE003200CE05C
:1014480003200AE0032008E0002006E0012004E071
:10145800032002E0032000E0032002B070BD00BFBB
:10146800001002406000424230B486B0164D02AC13
:1014780028686968AA68EB680FC42B8AADF804303D
:10148800124B5B6803F00C02082A19D1C3F383429C
:1014980006A90A4412F8102C13F4803F0CD00B4B09
:1014A8005B68C3F340430B4413F8140C084BB3FBBD
:1014B800F0F000FB02F004E0064800FB02F000E058
:1014C800034806B030BC7047383F0008001002409F
:1014D80000127A0000093D0070B55C4B1B6803F0F0
:1014E80007038B420BD2594A136823F007030B43B7
:1014F8001360136803F00703994240F0978003686C
:1015080013F0020F06D0524C636823F0F002836890
:10151800134363600D460446036813F0010F4DD072
:101528004268012A05D14A4B1B6813F4003F0DD1CC
:101538007EE0022A05D1464B1B6813F0007F05D1D7
:1015480078E0434B1B6813F0020F75D040494B6895
:1015580023F0030313434B6000F0EAFD064663687B
:10156800012B0ED106E000F0E3FD801B41F2883329
:10157800984263D8364B5B6803F00C03042BF2D116
:101588001CE0022B15D106E000F0D2FD801B41F2D1
:101598008833984254D82E4B5B6803F00C03082B11
:1015A800F2D10BE000F0C4FD801B41F28833984271
:1015B80048D8274B5B6813F00C0FF3D1234B1B68FB
:1015C80003F007039D420AD2204A136823F0070359
:1015D8002B431360136803F007039D4234D123683B
:1015E80013F0040F06D01A494B6823F4E062E3684D
:1015F80013434B60236813F0080F07D0144A53684D
:1016080023F46053216943EAC1035360FFF72CFFB9
:101618000F4B5B68C3F303130E4AD35CD8400E4BE1
:101628001860002000F054FD002070BD012070BD3E
:10163800012070BD012070BD012070BD032070BD68
:10164800032070BD032070BD012070BD0020024042
:10165800001002404C3F000800000020014B1868B1
:10166800704700BF0000002008B5FFF7F7FF044BE4
:101678005B68C3F30223034AD35CD84008BD00BFAC
:10168800001002405C3F000808B5FFF7E7FF044B75
:101698005B68C3F3C223034AD35CD84008BD00BFCC
:1016A800001002405C3F000870B4036A23F0010395
:1016B8000362036A4668826922F073020C6842EA90
:1016C800040523F002028B6813430F4CA04202D09A
:1016D8000E4A904205D123F00803CA68134323F049
:1016E8000403094CA04202D0084A904205D126F4CE
:1016F80040764A6932438E691643466085614A6876
:101708004263036270BC7047002C01400034014002
:1017180030B4036A23F480730362036A4568C269BC
:1017280022F073020C68224323F400738C6843EAA6
:101738000423124CA04203D004F50064A04206D151
:1017480023F40063CC6843EA042323F480630B4C3E
:10175800A04203D004F50064A04207D125F4405507
:101768004C6945EA04158C6945EA04154560C2616F
:101778004A68C263036230BC704700BF002C014056
:1017880030B4036A23F480530362036A4468C2696D
:1017980022F4E6420D6842EA052223F400538D68DC
:1017A80043EA0533094DA84203D005F50065A84270
:1017B80004D124F480444D6944EA85144460C2612C
:1017C8004A680264036230BC704700BF002C0140C5
:1017D80010B4036A046A24F001040462846924F0E2
:1017E800F00444EA021223F00A03194382610162F9
:1017F80010BC704710B4036A23F0100303628469B5
:10180800036A24F4704444EA023223F0A00343EA52
:1018180001118261016210BC704700BF10B4846876
:1018280024F47F4442EA0323194344EA0103836012
:1018380010BC704710B50468A36823F070024B68A9
:10184800134323F007030A681343A3604B68502B24
:101858001FD002D8402B0BD010BD602B1FD0702B8F
:1018680022D10B698A68C9680068FFF7D7FF10BDE5
:1018780003681C6A1A6A22F001021A6202689369F4
:1018880023F0F003096943EA0113936103681C62BA
:1018980010BD0A6989680068FFF79AFF10BD0A69D8
:1018A80089680068FFF7A6FF10BD00BF704700BF3A
:1018B80038B590F83C30012B18D00446012580F843
:1018C8003C50022380F83D30FFF7B4FF2268D3680C
:1018D80023F04003D3602268D36823F48043D360A5
:1018E80084F83D50002084F83C0038BD022038BD03
:1018F8000368244A904212D002F5006290420ED04A
:10190800B0F1804F0BD0A2F59832904207D002F583
:101918008062904203D002F58062904203D123F0A6
:1019280070034A681343174A904212D002F50062C6
:1019380090420ED0B0F1804F0BD0A2F59832904271
:1019480007D002F58062904203D002F5806290428F
:1019580003D123F44073CA68134323F080034A6910
:10196800134303608B68C3620B688362054B98421C
:1019780003D003F50063984201D10B690363012387
:1019880043617047002C0140B8B110B5044690F887
:101998003D3013F0FF0F04D1002380F83C30FFF7EF
:1019A80085FF022384F83D30211D2068FFF7A0FF42
:1019B800012384F83D30002010BD0120704700BF8E
:1019C80030B4036A23F010030362036A446882692F
:1019D80022F4E6420D6842EA052223F020038D68CE
:1019E80043EA0513114DA84203D005F50065A84246
:1019F80006D123F08003CD6843EA051323F04003A2
:101A08000A4DA84203D005F50065A84207D124F481
:101A180040644D6944EA85048D6944EA850444605C
:101A280082614A688263036230BC7047002C0140BF
:101A380038B590F83C30012B66D00D46044601239A
:101A480080F83C30022380F83D300C2A55D8DFE876
:101A580002F0075454541A5454542E545454410008
:101A68000068FFF721FE2268936943F00803936139
:101A78002268936923F004039361226891692B69B2
:101A88000B43936139E00068FFF79AFF2268936976
:101A980043F4006393612268936923F4806393613C
:101AA80022689369296943EA0123936125E0006864
:101AB800FFF72EFE2268D36943F00803D36122683A
:101AC800D36923F00403D3612268D1692B690B43DE
:101AD800D36112E00068FFF753FE2268D36943F42C
:101AE8000063D3612268D36923F48063D3612268D9
:101AF800D369296943EA0123D361012384F83D307E
:101B0800002084F83C0038BD022038BD10B4012301
:101B180003FA01F4036A23EA04030362036A8A40AE
:101B28001A43026210BC704710B5044601220068CF
:101B3800FFF7ECFF23680C4A934205D002F50062D8
:101B4800934203D1012202E0012200E000221AB1EF
:101B58005A6C42F400425A642268136843F0010345
:101B68001360002010BD00BF002C014010B40423F6
:101B780003FA01F4036A23EA04030362036A8A404E
:101B88001A43026210BC704710B50446042200686C
:101B9800FFF7ECFF2268536C43F400435364226858
:101BA800136843F001031360002010BD90F83C3027
:101BB800012B25D0012380F83C30CB6823F44072F8
:101BC8008B68134323F480624B68134323F4006249
:101BD8000B68134323F480520B69134323F4005218
:101BE8004B69134323F480438A69134323F4004366
:101BF800134302685364002380F83C30184670474A
:101C08000220704790F83C30012B21D030B40122DB
:101C180080F83C20022380F83D300468636823F094
:101C280070036360046865680B682B43636004682D
:101C3800A36823F08003A3600468A5684B682B435E
:101C4800A36080F83D20002380F83C30184601E06E
:101C58000220704730BC704790F82430012B27D001
:101C6800012380F8243003689A6812F0010F10D11C
:101C7800114A926812F0010F0BD1104A934208D111
:101C880010B45A6822F470240A6822435A60002368
:101C980009E0836A43F0200383620123002280F86D
:101CA800242018467047002280F82420184601E0B6
:101CB8000220704710BC70470028014000240140F2
:101CC800074AD36823F4E0631B041B0C000200F4EA
:101CD800E060184340F0BF6040F40030D0607047C7
:101CE80000ED00E030B4164BDB68C3F30223C3F108
:101CF8000704042C28BF04241D1D062D01D9DD1E50
:101D080000E00025012303FA04F4013C2140A94026
:101D1800AB40013B1A400A43002806DA00F00F00E6
:101D28001201D2B2074B1A5407E01201D2B200F1E5
:101D3800604000F5614080F8002330BC704700BF68
:101D480000ED00E014ED00E0420900F01F0001235F
:101D580003FA00F0014B43F82200704700E100E06D
:101D68000138B0F1807F0AD2064B5860F021064A4C
:101D780082F823100020986007221A60704701201B
:101D8800704700BF10E000E000ED00E0042805D136
:101D9800054A136843F0040313607047024A136846
:101DA80023F004031360704710E000E0704700BFA1
:101DB80008B5FFF7FBFF08BDF0B583B00026344631
:101DC800DFE00122A2400B6813409A4240F0D8801D
:101DD8004D68122D2DD00BD8022D27D003D85DB316
:101DE800012D1ED035E0032D30D0112D1BD030E051
:101DF800664FBD4220D008D8A7F58017BD421BD03A
:101E080007F58037BD4224D116E0614FBD4213D09B
:101E180007F58037BD420FD0A7F58017BD4218D10E
:101E28000AE0CE6815E0CE68043612E0CE680836BF
:101E38000FE0CE680C360CE08D684DB1012D02D153
:101E48000261082605E04261082602E0002600E05B
:101E58000426FF2B01D8864601E000F1040EFF2B73
:101E680001D8A20002E0A4F108029200DEF8007096
:101E78000F25954027EA050506FA02F22A43CEF80F
:101E880000204A6812F0805F7AD0424A956945F08E
:101E980001059561926902F001020192019AA70871
:101EA800BD1C3D4A52F825E004F0030292000F25BC
:101EB80095402EEA050E394DA84215D005F58065E6
:101EC800A84213D005F58065A84211D005F58065B4
:101ED800A8420FD005F58065A8420DD005F58065AC
:101EE800A8420BD105250AE0002508E0012506E0F7
:101EF800022504E0032502E0042500E0062505FA92
:101F080002F24EEA02020237234D45F827204A68BA
:101F180012F4803F05D005F580652A681A432A60C7
:101F280004E01F4D2A6822EA03022A604A6812F474
:101F3800003F04D01A4D6A681A436A6004E0184DDD
:101F48006A6822EA03026A604A6812F4801F04D0B1
:101F5800134DAA681A43AA6004E0114DAA6822EA40
:101F68000302AA604A6812F4001F04D00C4DEA6804
:101F78001343EB6004E00A4DEA6822EA0303EB60CE
:101F880001340F2C7FF61DAF03B0F0BD0000211007
:101F9800000031100010024000000140000801401C
:101FA800000401400AB101617047090401617047EA
:101FB800C3685940C160704770B582B00446036871
:101FC80013F0010F5CD03E4BDB6913F0805F0BD13F
:101FD8003B4BDA6942F08052DA61DB6903F08053E7
:101FE8000193019B012600E00026364B1B6813F481
:101FF800807F12D1334A136843F48073136000F072
:1020080097F8054604E000F093F8401B64284FD881
:102018002C4B1B6813F4807FF5D0294B1B6A13F4F3
:10202800407321D0626802F4407293421CD0244A63
:10203800136A23F44070244901250D6000250D60C2
:10204800106213F0010F0FD000F072F8054606E099
:1020580000F06EF8401B41F2883398422AD8184B9A
:102068001B6A13F0020FF3D015490B6A23F4407270
:10207800636813430B621EB1CB6923F08053CB61B5
:10208800236813F0020F06D00D494B6823F4404231
:10209800A36813434B60236813F0100F0CD0084952
:1020A8004B6823F48002636913434B60002004E00B
:1020B800032002E0032000E0002002B070BD00BF52
:1020C800001002400070004040044242704700BFC8
:1020D80010B50446074B1B680748A0FB033080096E
:1020E800FFF73EFE002221464FF0FF30FFF7FAFDD2
:1020F800002010BD00000020D34D621008B5074A2B
:10210800136843F0100313600320FFF7D9FD002084
:10211800FFF7DEFFFFF7DAFF002008BD00200240CE
:10212800024A136801331360704700BF740000202F
:10213800014B1868704700BF7400002030B583B0A9
:102148000190FFF7F5FF0546019CB4F1FF3F00D071
:102158000134FFF7EDFF401BA042FAD303B030BDB6
:10216800704700BF70B483B00023019390F8243007
:10217800012B00F08880012380F824304B68062B5F
:102188000ED80668756B03EB8303053B1F249C4040
:1021980025EA04040A6802FA03F3234373631EE082
:1021A8000C2B0ED805682A6B03EB8303233B1F24F3
:1021B8009C4022EA04040A6802FA03F323432B63CF
:1021C8000DE00568EA6A03EB8303413B1F249C404A
:1021D80022EA04040A6802FA03F32343EB620B6859
:1021E800092B0ED90668F56803EB43031E3B072449
:1021F8009C4025EA04048A6802FA03F32343F36047
:102208000CE00668356903EB430307249C4025EA84
:1022180004048A6802FA03F3234333610B68103B12
:10222800012B26D803681A4A93421CD19A6812F4E3
:10223800000F20D19A6842F400029A600B68102BB4
:102248001BD1144B1B68144AA2FB03239B0C03EB02
:1022580083035A00019202E0019B013B0193019B19
:10226800002BF9D10AE0836A43F02003836201233B
:1022780004E0002302E0002300E00023002280F8AD
:102288002420184600E0022003B070BC704700BF4D
:10229800002401400000002083DE1B4330B583B0DA
:1022A8000023019303689A6812F0010F2FD19A68EE
:1022B80042F001029A60174B1B68174AA2FB0323DE
:1022C8009B0C019302E0019B013B0193019B002BB6
:1022D800F9D10446FFF72CFF054611E0FFF728FF68
:1022E800401B02280CD9A36A43F01003A362E36AD7
:1022F80043F00103E362002384F82430012007E05F
:1023080023689B6813F0010FE8D0002000E000204C
:1023180003B030BD0000002083DE1B4390F824305A
:10232800012B71D010B50446012380F82430FFF743
:10233800B5FF0346002863D1A26A22F4407222F056
:10234800010242F48072A262226830498A4205D1B1
:10235800A1F58061496811F4702F0ED1A16A21F4AA
:102368008011A162516811F4806F1CD0A16A21F418
:10237800405141F48051A16215E0A16A41F48011F5
:10238800A16223498A4203D001F580618A420AD1B9
:102398001F49496811F4806F05D0A16A21F44051A2
:1023A80041F48051A162A16A11F4805F04D0E16A0E
:1023B80021F00601E16201E00021E162002184F8D8
:1023C80024106FF0020111602268916801F4602105
:1023D800B1F5602F0ED10D498A4205D1A1F5806172
:1023E800496811F4702F05D1916841F4A0019160FA
:1023F800184610BD916841F480119160184610BDCF
:10240800002284F8242010BD0220704700280140D3
:102418000024014038B503689A6812F0010F1ED0F5
:1024280004469A6822F001029A60FFF781FE054689
:102438000EE0FFF77DFE401B022809D9A36A43F08E
:102448001003A362E36A43F00103E362012038BD8D
:1024580023689B6813F0010FEBD1002038BD0020E2
:1024680038BD00BF002800F0888070B50446836A34
:1024780023B9C36280F82430FFF772FE2046FFF7C5
:10248800C9FFA36A13F0100F71D100286FD1A36A96
:1024980023F4885323F0020343F00203A362636822
:1024A8002168374A914206D1E269B2F5402F03D13B
:1024B8004FF4002200E0E2691343E56843EA45036C
:1024C800A268B2F5807F04D0012A05D14FF4807646
:1024D80003E04FF4807600E000266269012A0FD1FC
:1024E80035B9A269013A46EA423242F4006607E089
:1024F800A26A42F02002A262E26A42F00102E262AB
:102508004A6822F4694232434A6021688D681D4A4C
:102518002A401A438A60A268B2F5807F01D0012A56
:1025280003D12269013A110500E000212568EA6A11
:1025380022F470020A43EA6222689168124A0A4049
:10254800934208D10023E362A36A23F0030343F014
:102558000103A36270BDA36A23F0120343F01003C2
:10256800A362E36A43F00103E362012070BDA36A3A
:1025780043F01003A362012070BD0120704700BF23
:10258800003C0140FDF7E1FFFE0E1FFF0268D36823
:1025980023F0C003D360202380F83930704700BF90
:1025A8000268D36823F49073D3600268536923F0F8
:1025B80001035361202380F83A3070472DE9F8432E
:1025C800814601680B6923F44052C36813430B61C9
:1025D800816803691943436919430068C26822F492
:1025E800B05323F00C030B43C360D9F800104B69B8
:1025F80023F44072D9F8183013434B61D9F80050CE
:102608005B4B9D4259D1FFF73FF800EB800000EB90
:102618008000D9F80440A400B0FBF4F4554EA6FBA2
:10262800043464092401FFF72FF800EB800000EB65
:102638008000D9F804309B00B0FBF3F7FFF724F8CB
:1026480000EB800000EB8000D9F804309B00B0FB61
:10265800F3F3A6FB03235B094FF0640808FB13732D
:102668001B013233A6FB03235B0903F0F0031C4470
:10267800FFF70AF800EB800000EB8000D9F804307F
:102688009B00B0FBF3F7FEF7FFFF00EB800000EBC9
:102698008000D9F804309B00B0FBF3F3A6FB0323BA
:1026A8005B0908FB13731B013233A6FB0323C3F337
:1026B80043131C44AC60BDE8F883FEF7D5FF00EB7C
:1026C800800000EB8000D9F80440A400B0FBF4F4CB
:1026D800284EA6FB043464092401FEF7C5FF00EB6D
:1026E800800000EB8000D9F804309B00B0FBF3F7C2
:1026F800FEF7BAFF00EB800000EB8000D9F8043049
:102708009B00B0FBF3F3A6FB03235B094FF06408BF
:1027180008FB13731B013233A6FB03235B0903F089
:10272800F0031C44FEF7A0FF00EB800000EB8000E4
:10273800D9F804309B00B0FBF3F7FEF795FF00EBE8
:10274800800000EB8000D9F804309B00B0FBF3F365
:10275800A6FB03235B0908FB13731B013233A6FB9B
:102768000323C3F343131C44AC60BDE8F88300BFE4
:10277800003801401F85EB51704700BF68B310B5A2
:10278800044690F8393013F0FF0F04D1002380F885
:102798003830FFF7F1FF242384F839302268D368F2
:1027A80023F40053D3602046FFF708FF226813691B
:1027B80023F4904313612268536923F02A03536179
:1027C8002268D36843F40053D3600020E0632023D9
:1027D80084F8393084F83A3010BD0120704700BFC2
:1027E80030B583B090F83A40E4B2202C3DD10029AE
:1027F8003DD0002A3DD090F83830012B3BD013460D
:102808000A460446012180F8381082628385002533
:10281800C563222180F83A10416B18488862616BC1
:102828001748C862616B17480863616B4D6321687C
:102838000431606B00F0E4F8019523681A6801928E
:102848005A680192019A84F83850DA6842F4807222
:10285800DA602268536943F00103536122685369BF
:1028680043F040035361284606E0022004E00120BB
:1028780002E0012000E0022003B030BD95280008E6
:10288800D9280008E9280008704700BF08B5436A3E
:102898000268126812F0200F13D10022DA85196835
:1028A800CA6822F48072CA6019684A6922F0010273
:1028B8004A6119684A6922F040024A61202283F875
:1028C8003A201846FFF7E0FF08BD00BF704700BF79
:1028D80008B5406AFFF7FAFF08BD00BF704700BFA0
:1028E80010B5446A23685B6903F0800294F83930B4
:1028F800DBB2212B05D122B10023E3842046FFF768
:1029080045FE23685B6903F0400294F83A30DBB275
:10291800222B05D122B10023E3852046FFF740FE94
:10292800E36B43F01003E3632046FFF7D7FF10BDC6
:1029380070B4C56B066C0124B4406C6004686360B5
:102948004368102B04D103689A600368D96003E0D8
:10295800036899600368DA6070BC704700283ED04D
:1029680010B403460168204A91420AD81F4A0A4413
:102978001F49A1FB02121209920002641D4AC26398
:1029880009E01D4A0A441A49A1FB021212099200E1
:1029980002641A4AC263022283F821201C68226852
:1029A80022F47F5121F0300158689A681043DA68A0
:1029B80010431A6910435A6910439A691043DA6937
:1029C80002430A43226000209862D8621863586361
:1029D8009863012283F8212083F8200001E0012078
:1029E800704710BC704700BF07040240F8FFFDBFE6
:1029F800CDCCCCCC00000240F8FBFDBF0004024067
:102A080038B590F82040012C32D0012480F82040BD
:102A180090F82140012C26D10446022084F8210098
:102A28000020A0632568286820F00100286020465F
:102A3800FFF77EFFE36A2BB12268136843F00E03A9
:102A4800136009E02268136823F004031360226806
:102A5800136843F00A0313602268136843F0010304
:102A68001360002038BD002380F82030022038BDD4
:102A7800022038BD38B5C36B1A6804682568016C34
:102A880004238B401A4200F09D8015F0040F00F0DB
:102A98009980236813F0200F03D1236823F00403DF
:102AA80023600368A84A934243D9783A934221D0D5
:102AB8001432934220D0143293421FD014329342DE
:102AC8001FD0143293421FD0143293421FD01432B5
:102AD80093421FD002F5627293421ED01432934281
:102AE8001DD0143293421CD0143293421CD14FF49F
:102AF80080421BE0042219E0402217E04FF4806274
:102B080014E04FF4804211E04FF480220EE04FF4BD
:102B180080020BE04FF0806208E0042206E04022C9
:102B280004E04FF4806201E04FF48022874B5A6042
:102B380042E0874A934221D01432934220D0143283
:102B480093421FD0143293421FD0143293421FD0A5
:102B5800143293421FD0143293421FD002F562728E
:102B680093421ED0143293421DD0143293421CD08B
:102B7800143293421CD14FF480421BE0042219E026
:102B8800402217E04FF4806214E04FF4804211E0D5
:102B98004FF480220EE04FF480020BE04FF0806289
:102BA80008E0042206E0402204E04FF4806201E0DD
:102BB8004FF48022674B5A60C36A002B00F0C38031
:102BC800984738BD02238B401A4200F0A18015F0C7
:102BD800020F00F09D80236813F0200F06D12368B0
:102BE80023F00A032360012380F821300368564A42
:102BF800934243D9783A934221D01432934220D059
:102C0800143293421FD0143293421FD0143293428D
:102C18001FD0143293421FD0143293421FD002F5B2
:102C2800627293421ED0143293421DD014329342E2
:102C38001CD0143293421CD14FF400521BE00222E4
:102C480019E0202217E04FF4007214E04FF400520C
:102C580011E04FF400320EE04FF400120BE04FF099
:102C6800007208E0022206E0202204E04FF400721D
:102C780001E04FF40032354B5A6042E0344A934247
:102C880021D01432934220D0143293421FD01432F0
:102C980093421FD0143293421FD0143293421FD054
:102CA800143293421FD002F5627293421ED014323E
:102CB80093421DD0143293421CD0143293421CD13B
:102CC8004FF400521BE0022219E0202217E04FF4D3
:102CD800007214E04FF4005211E04FF400320EE09D
:102CE8004FF400120BE04FF0007208E0022206E0F9
:102CF800202204E04FF4007201E04FF40032154B3B
:102D08005A60002380F82030836AE3B1984738BDC1
:102D1800082303FA01F10A4215D015F0080F12D062
:102D2800236823F00E032360C16B026C012303FAAE
:102D380002F24A60836380F82130002380F8203053
:102D4800036B03B1984738BD80000240000402407D
:102D580008000240000002400F4B1A6842F00102CE
:102D68001A6059680D4A0A405A601A6822F084723B
:102D780022F480321A601A6822F480221A605A6893
:102D880022F4FE025A604FF41F029A604FF000626C
:102D9800034B9A60704700BF001002400000FFF824
:102DA80000ED00E0F0B589B03E4EF36943F400331E
:102DB800F361F36903F400330093009B06220521B5
:102DC8001020FEF78FFF1020FEF7BEFF0722052117
:102DD8001120FEF787FF1120FEF7B6FF324D334B67
:102DE8002B604FF496436B600024AC60EC602C6160
:102DF8000C236B61AC612846FFF7C0FC736943F094
:102E080001037361736903F001030193019BB369C3
:102E180043F00403B361B36903F004030293029B14
:102E2800F36943F40033F361F36903F40033039364
:102E3800039B01230693042304930223059303238E
:102E48000793A6F5843604A93046FEF7B5FF082394
:102E58000493059404A93046FEF7AEFF144E154BB3
:102E680033607460B4608027F76034617461202334
:102E7800B361F4613046FFF771FD6E6375620E4E03
:102E88000E4B336010237360B460F7603461746173
:102E9800B461F4613046FFF761FD2E63756209B0D5
:102EA800F0BD00BF00100240900200200044004026
:102EB800780000206C0002403802002080000240A8
:102EC80030B597B01F4BDA6942F48022DA61DA69CB
:102ED80002F480220092009A5A6942F001025A6173
:102EE8005B6903F001030193019B174D06954FF4AD
:102EF800E13307930024089409940A9408230B9358
:102F08000C940D9406A8FFF739FC6B6943F0800315
:102F18006B614FF4806302930123049302230393AC
:102F28000323059302A90948FEF746FF084B1C60D6
:102F3800084A9A605C6090221A6070221C3B5A60B2
:102F480017B030BD0010024000480040000C01409E
:102F58001C000240044800402DE9F04F89B07B4B2B
:102F68009A6942F004029A619A6902F00402019295
:102F7800019A9A6942F008029A619A6902F0080275
:102F88000292029A9A6942F010029A619B6903F0D0
:102F980010030393039B00230593069302270797C7
:102FA8004FF0200A0DEB0A0444F810AD214668489A
:102FB800FEF702FF4023049321466548FEF7FCFE16
:102FC8008025049521466248FEF7F6FE4FF480639B
:102FD800049321465F48FEF7EFFE4FF40063049325
:102FE80021465C48FEF7E8FE4FF4805604962146D9
:102FF8005848FEF7E1FE049621465748FEF7DCFEE6
:10300800049721465448FEF7D7FE4FF00108CDF843
:1030180014804FF00409CDF8109021464C48FEF773
:10302800CBFE1026049621464B48FEF7C5FECDF888
:1030380010A021464848FEF7BFFE03230593CDF8AC
:10304800108021464348FEF7B7FECDF81080214690
:103058004148FEF7B1FE4FF0080BCDF810B02146FD
:103068003C48FEF7A9FE049721463A48FEF7A4FE1D
:10307800049621463748FEF79FFECDF810A021465A
:103088003448FEF799FECDF8109021463148FEF7F6
:1030980093FECDF810B021462F48FEF78DFECDF8EF
:1030A800109021462C48FEF787FE0597402304938D
:1030B80021462848FEF780FE049521462548FEF75C
:1030C8007BFE4FF48079CDF8109021462148FEF719
:1030D80073FE049521462048FEF76EFECDF8108059
:1030E80021461B48FEF768FE049721461848FEF75C
:1030F80063FECDF8109021461748FEF75DFE4FF4A9
:103108000073049321461448FEF756FE4FF480637B
:10311800049321461048FEF74FFE4FF400530493E2
:1031280021460B48FEF748FE4FF48043049321469E
:103138000748FEF741FE4FF4004304932146044834
:10314800FEF73AFE09B0BDE8F08F00BF001002405C
:10315800000C014000100140000801402DE9F04F2B
:1031680099B0754B9A6942F400629A619A6902F4BF
:1031780000620192019A9A6942F400529A619B692D
:1031880003F400530293029B6C4EDFF8B891C6F823
:103198000090002474604FF02008C6F808804FF4AF
:1031A800FA6BC6F80CB034617461B4613046FEF74E
:1031B800EBFB10231693179416A93046FEF722FD51
:1031C80060230F9310941194082712971394149462
:1031D8004FF40073159322460FA93046FEF728FCDA
:1031E80004220FA93046FEF723FC3A460FA93046C1
:1031F800FEF71EFC4FF4006308934FF480630993B5
:103208000A94CDF82C800C940D940E940DEB0801C3
:103218003046FEF7CBFC4A4DDFF82CA1C5F800A0DC
:103228006C60C5F80880C5F80CB02C616C61AC61A5
:103238002846FEF7A9FBCDF858808023179316A9D6
:103248002846FEF7DFFC049418A9052341F8543DED
:103258002846FEF72DFB60230F93109411941297C4
:10326800139414944FF40073159322460FA928461B
:10327800FEF7DEFB04220FA92846FEF7D9FB3A46E3
:103288000FA92846FEF7D4FB4FF4006308934FF4C8
:10329800806309930A94CDF82C800C940D940E94B5
:1032A8000DEB08012846FEF781FCDAF8443023F4D8
:1032B8000043CAF84430D9F8443023F40043C9F82D
:1032C800443021462846FEF72FFC04212846FEF705
:1032D8002BFC39462846FEF727FC21462846FEF7F0
:1032E80053FC04212846FEF74FFC39462846FEF7D2
:1032F8004BFC21463046FEF717FC04213046FEF70A
:1033080013FC39463046FEF70FFC21463046FEF7DF
:103318003BFC04213046FEF737FC39463046FEF7C1
:1033280033FC2B6801221A633268136843F00103E7
:10333800136019B0BDE8F08F001002404001002072
:10334800D0020020002C0140003401402DE9F0415A
:1033580086B0424EB36943F40073B361B36903F4B2
:1033680000730093009B3E4C3E4B23604FF48073E8
:10337800A3600025E56065614FF44023E361656063
:103388004FF00508C4F810802046FFF76BF8364A5E
:10339800536843F48023536006A94FF4C02341F8CF
:1033A800043D2046FEF758FC012304930E220292A6
:1033B800039302A92046FEF7D5FE0295022703973C
:1033C80002A92046FEF7CEFE04970B270297032397
:1033D800039302A92046FEF7C5FE0C23029304239B
:1033E800039302A92046FEF7BDFE0723049310238A
:1033F8000293CDF80C8002A92046FEF7B3FE22689E
:10340800936843F4000343F480739360936843F034
:1034180001039360736943F001037361736903F0F7
:1034280001030193019B114B1D60C3F80480104AEE
:103438009A60104ADA6040F6A2221A601A6842F0CE
:1034480001021A602A4629463846FEF74BFC3846E0
:10345800FEF77AFC06B0BDE8F08100BF001002401C
:10346800080200200024014000000140080002403A
:103478004C2401407C020020F0B585B0284B9A69A5
:1034880042F480629A619B6903F480630093009B15
:10349800244C254B23604FF48073A3600023E36022
:1034A80063614FF46022E26163600526266120466D
:1034B800FEF7D8FF012303930F220192029301A97B
:1034C8002046FEF74FFE0D2301930225029501A920
:1034D8002046FEF747FE03950A2301930327029728
:1034E80001A92046FEF73EFE0195042302930DEB49
:1034F80003012046FEF736FE072303930197029641
:1035080001A92046FEF72EFE23689A6842F48072CD
:103518009A609A6842F001029A6005B0F0BD00BF57
:1035280000100240BC0000200028014030B597B0D0
:1035380002250C9501231093102311931395002451
:1035480014944FF4601315930CA8FDF78DFD0F2309
:103558000793089509944FF480630A930B942946BE
:1035680007A8FDF7B9FF01954FF44043039301A85D
:10357800FEF722FDFEF772F8084BA3FB0030800926
:10358800FEF7EEFB0420FEF701FC224621464FF031
:10359800FF30FEF7A7FB17B030BD00BFD34D621058
:1035A80030B583B0FEF7AAFD514CA36943F001037F
:1035B800A361A36903F001030193019B0320FEF7B4
:1035C8007FFB002211466FF00B00FEF78BFB0022F9
:1035D80011466FF00A00FEF785FB002211466FF0D6
:1035E8000900FEF77FFB002211466FF00400FEF78A
:1035F80079FB002211466FF00300FEF773FB0022EF
:1036080011466FF00100FEF76DFB002211464FF0E6
:10361800FF30FEF767FBFFF789FF636923F00103BB
:103628006361FFF799FCFFF799FDFFF78FFEFFF73E
:1036380023FFFFF745FC012220212E48FEF7B2FCAC
:103648002D48FEF76BFE2D48FEF768FE082405E0BE
:103658002B4B1C706420FEF771FD013C002CF7DA3F
:103668000025274B1D70012204212648FEF79AFCED
:10367800FFF798FB012224492448FFF7B1F8244BAF
:103688001B8A0122234B1A702C460520FEF756FD93
:103698001D4B1B7803F0C003802B0DD11A490B7802
:1036A80003F01F03C3EB03135A0015460B7813F0FE
:1036B800200F14D0554212E0134B1B7803F0C003BF
:1036C800C02B0CD110490B7803F01F03C3EB031375
:1036D8005A0014460B7813F0200F00D054420022F1
:1036E8000D4B1A600D4B1C606B420D4A1360CCE702
:1036F800001002400008014008020020BC00002021
:1037080064000020000C01404000002090020020CE
:103718007C0200205C0000200400002068000020DB
:1037280060000020000000000222814B5A60814B9B
:103738001B68B3F57A7F3ADA01337E4A13607E4A12
:10374800938899B27D4803680B4403EBD3735B10ED
:103758000360D38899B27A4803680B4403EBD373A8
:103768005B100360138899B2764803680B4403EB37
:10377800D3735B100360538899B2734803680B4492
:1037880003EBD3735B100360538999B26F480368E6
:103798000B4403EBD3735B10036013899AB26C4933
:1037A8000B68134403EBD3735B100B6070472DE970
:1037B800F041684B1C68684BA3FB04239B094FF43A
:1037C8007A7202FB134313BB644D2868FCF79AFE18
:1037D80051A3D3E90023FCF7E9FE06460F46564BF2
:1037E800988980B2FDF782FA5D49FDF7D7FAFCF7B0
:1037F80089FE4BA3D3E90023FCF7D8FE02460B460B
:1038080030463946FCF720FDFDF76AF928604A4B37
:10381800588980B24D4B1D68401BFCF761FE42A3DE
:10382800D3E90023FCF7C2FE00220023FDF730F99C
:1038380080B1414B588980B2401BFCF751FE3AA336
:10384800D3E90023FCF7B2FE0022464BFDF720F92E
:10385800B8B90FE0384B588980B2401BFCF740FEDE
:1038680031A3D3E90023FCF7A1FE00223E4BFDF76C
:103878002DF930B93D4B1B68052B02D83C4B1B7802
:103888002BB93C4A536C23F40043536404E0394A8F
:10389800536C43F400435364274B188980B22C4B74
:1038A8001D68401BFCF71CFE1FA3D3E90023FCF78F
:1038B8007DFE00220023FDF7EBF880B11E4B18892E
:1038C80080B2401BFCF70CFE17A3D3E90023FCF7DA
:1038D8006DFE0022234BFDF7DBF8B8B90FE0164B5D
:1038E800188980B2401BFCF7FBFD0FA3D3E9002326
:1038F800FCF75CFE00221C4BFDF7E8F830B91B4BC7
:103908001B68052B02D81A4B1B78BBBB1A4A536C91
:1039180023F40043536436E0AE47E17A14AEEF3F38
:103928007B14AE47E17A843F7B14AE47E17A943F3B
:1039380000000240440000207C0200200C0000200F
:103948000800002014000020100000201C000020A7
:10395800200000206C000020D34D621018000020C9
:1039680017B9CE3C00002EC000002E4004000020F5
:103978005C00002000340140002C0140904A536C48
:1039880043F4004353648F4A936813F0200F0CBF2D
:1039980001210021936813F0400F0CBF012300237D
:1039A800926812F0800F0CBF01250025864A9068A6
:1039B80010F4806F0CBF01200020966816F4006F89
:1039C8000CBF01270027926812F4805F03EB4503C0
:1039D80001EB4303DBB27D4EF35C7D490B600B6862
:1039E80003F102030B600D687A4B83FB05E2A2EB3F
:1039F800E57202EB42024FEA420ECEEB05020A6084
:103A08000CBF022200223A4400EB4202D2B2B05C60
:103A1800714A1060106802301060106883FB005310
:103A2800A3EBE07303EB43035D00431B13600968DA
:103A38006A4883889BB26A4A12689A1AC3889BB2FA
:103A4800684800681B1A052918D8DFE801F0030741
:103A58000A0D1013D31A644A136012E0624B1A60FD
:103A68000FE0614B1A600CE05F4A136009E05E4AA0
:103A7800136006E09B1A5C4A136002E000225A4B6E
:103A88001A600134594B1C60594B1868A8B1594B3E
:103A9800A3FB04231B0B584A12680132B3FBF2F153
:103AA80002FB11334BB9B4FBF0F300FB13444CB9E0
:103AB80010215248FEF77CFA04E0002210214F48FA
:103AC800FEF770FA4E4B1C68414B1B68052B1ED83D
:103AD800DFE803F003070B0F1318C4F1000E0025ED
:103AE80019E065424FF0000E15E06542A646002435
:103AF80011E0A646644200250DE0254664424FF0D9
:103B0800000E08E0C4F1000E2546002403E04FF043
:103B1800000E744675463B4B1A682F4B1B68052BE5
:103B28001AD8DFE803F00306090D111556420021E3
:103B380015E05142002612E05142164600220EE0DE
:103B48001646524200210AE011465242002606E07B
:103B580056421146002202E0002632463146284BE2
:103B68001B68002B52DD284B1868194B1F68053756
:103B7800184B83FB07C3A3EBE77303EB43034FEA3D
:103B8800430CCCEB0703052B6FD8DFE803F00306E3
:103B9800090D1115434200276DE0474200236AE0F2
:103BA80047420346002066E003464042002762E0A1
:103BB8000746404200235EE04342074600205AE0A1
:103BC800002C0140000C014000100140643F000837
:103BD80050000020ABAAAA2A580000207C0200202E
:103BE8000C00002008000020700000206C0000205D
:103BF800640000205917B7D1480000200008014090
:103C080060000020680000204C000020814B1F68E5
:103C18007842814B1B6803F1010C804B83FB0C83BA
:103C2800A3EBEC7303EB43034FEA4308C8EB0C0325
:103C3800052B04D8DFE803F01D07090C1015002335
:103C480018461F4617E0002315E00346002012E03F
:103C58000346384600270EE03B4607461846002331
:103C680009E03B460746002005E0002318461F46AA
:103C780001E03B4600273D44044403EB0E00684B3B
:103C88001B68002B35DD674BD3F800E0664B1F68D7
:103C98000537624B83FB07C3A3EBE77303EB4303CF
:103CA8004FEA430CCCEB0703052B54D8DFE803F0AD
:103CB80003070B11161BCEF10003002751E0CEF1CC
:103CC800000700234DE0CEF1000773464FF0000EC9
:103CD80047E07346CEF1000E002742E07746CEF16A
:103CE800000E00233DE0CEF1000377464FF0000EB2
:103CF80037E04C4B1F68C7F1000E4B4B1B6803F1B4
:103D0800010C464B83FB0C83A3EBEC7303EB4303DF
:103D18004FEA4308C8EB0C03052B04D8DFE803F08F
:103D28001F07090D111600239E461F4619E00023A0
:103D380017E073464FF0000E13E07346BE460027A7
:103D48000FE03B4677469E4600230AE03B4677460F
:103D58004FF0000E05E000239E461F4601E03B465B
:103D6800002739447244334405F57A7540F2C67623
:103D7800B54203DC0A2DB8BF0A2501E040F2C6753A
:103D88002A4E756304F57A7440F2C675AC4203DCBA
:103D98000A2CB8BF0A2401E040F2C674234DAC6374
:103DA80000F57A7040F2C674A04203DC0A28B8BF56
:103DB8000A2001E040F2C6701C4CE06301F57A71FC
:103DC80040F2C670814203DC0A29B8BF0A2101E02B
:103DD80040F2C6711648416302F57A7240F2C67124
:103DE8008A4203DC0A2AB8BF0A2201E040F2C672FE
:103DF8000F498A6303F57A7340F2C672934203DC73
:103E08000A2BB8BF0A2301E040F2C673084AD363FD
:103E1800BDE8F0814C00002050000020ABAAAA2A7F
:103E280068000020540000205800002000340140A1
:103E3800002C0140704700BFFEE700BFFEE700BF4F
:103E4800FEE700BFFEE700BF704700BF704700BF36
:103E5800704700BF08B5FEF763F9FDF7A9FF08BD75
:103E680008B50248FEF706FE08BD00BF780000202E
:103E780008B50248FEF7FEFD08BD00BF3802002065
:103E8800002103E00B4B5B58435004310A480B4BAD
:103E980042189A42F6D30A4A02E0002342F8043B49
:103EA800084B9A42F9D3FEF757FF00F00FF8FFF7D7
:103EB80077FB7047743F00080000002024000020B2
:103EC8002400002010030020FEE700000E4B70B510
:103ED8001E460E4C0025E41AA410A54204D056F83C
:103EE800253098470135F8E700F016F8084B094CDB
:103EF8001E46E41AA4100025A54204D056F8253021
:103F080098470135F8E770BD6C3F00086C3F000822
:103F18006C3F0008703F0008F8B500BFF8BC08BC4B
:103F28009E467047F8B500BFF8BC08BC9E4670476F
:103F380002030405060708090A0B0C0D0E0F1010E2
:103F4800010200000000000000000000010203045C
:103F5800060708090000000001020304000002012E
:043F68000405030049
:043F6C000D0200083A
:043F7000E90100085B
:103F740000A24A0464000000D0070000D00700003B
:103F8400D0070000D007000000002042D007000046
:043F9400D007000052
:0400000508003E8928
:00000001FF
